{
  "contracts/firstNFT.sol": {
    "FirstNFT": {
      "abi": [
        {
          "inputs": [],
          "stateMutability": "nonpayable",
          "type": "constructor"
        },
        {
          "anonymous": false,
          "inputs": [
            {
              "indexed": true,
              "internalType": "address",
              "name": "owner",
              "type": "address"
            },
            {
              "indexed": true,
              "internalType": "address",
              "name": "approved",
              "type": "address"
            },
            {
              "indexed": true,
              "internalType": "uint256",
              "name": "tokenId",
              "type": "uint256"
            }
          ],
          "name": "Approval",
          "type": "event"
        },
        {
          "anonymous": false,
          "inputs": [
            {
              "indexed": true,
              "internalType": "address",
              "name": "owner",
              "type": "address"
            },
            {
              "indexed": true,
              "internalType": "address",
              "name": "operator",
              "type": "address"
            },
            {
              "indexed": false,
              "internalType": "bool",
              "name": "approved",
              "type": "bool"
            }
          ],
          "name": "ApprovalForAll",
          "type": "event"
        },
        {
          "anonymous": false,
          "inputs": [
            {
              "indexed": true,
              "internalType": "address",
              "name": "previousOwner",
              "type": "address"
            },
            {
              "indexed": true,
              "internalType": "address",
              "name": "newOwner",
              "type": "address"
            }
          ],
          "name": "OwnershipTransferred",
          "type": "event"
        },
        {
          "anonymous": false,
          "inputs": [
            {
              "indexed": true,
              "internalType": "address",
              "name": "from",
              "type": "address"
            },
            {
              "indexed": true,
              "internalType": "address",
              "name": "to",
              "type": "address"
            },
            {
              "indexed": true,
              "internalType": "uint256",
              "name": "tokenId",
              "type": "uint256"
            }
          ],
          "name": "Transfer",
          "type": "event"
        },
        {
          "inputs": [
            {
              "internalType": "uint256",
              "name": "",
              "type": "uint256"
            }
          ],
          "name": "_middleOwners",
          "outputs": [
            {
              "internalType": "address",
              "name": "",
              "type": "address"
            }
          ],
          "stateMutability": "view",
          "type": "function"
        },
        {
          "inputs": [],
          "name": "_nextTokenId",
          "outputs": [
            {
              "internalType": "uint256",
              "name": "_value",
              "type": "uint256"
            }
          ],
          "stateMutability": "view",
          "type": "function"
        },
        {
          "inputs": [
            {
              "internalType": "address",
              "name": "to",
              "type": "address"
            },
            {
              "internalType": "uint256",
              "name": "tokenId",
              "type": "uint256"
            }
          ],
          "name": "approve",
          "outputs": [],
          "stateMutability": "nonpayable",
          "type": "function"
        },
        {
          "inputs": [
            {
              "internalType": "address",
              "name": "owner",
              "type": "address"
            }
          ],
          "name": "balanceOf",
          "outputs": [
            {
              "internalType": "uint256",
              "name": "",
              "type": "uint256"
            }
          ],
          "stateMutability": "view",
          "type": "function"
        },
        {
          "inputs": [
            {
              "internalType": "uint256",
              "name": "tokenId",
              "type": "uint256"
            }
          ],
          "name": "getApproved",
          "outputs": [
            {
              "internalType": "address",
              "name": "",
              "type": "address"
            }
          ],
          "stateMutability": "view",
          "type": "function"
        },
        {
          "inputs": [
            {
              "internalType": "address",
              "name": "owner",
              "type": "address"
            },
            {
              "internalType": "address",
              "name": "operator",
              "type": "address"
            }
          ],
          "name": "isApprovedForAll",
          "outputs": [
            {
              "internalType": "bool",
              "name": "",
              "type": "bool"
            }
          ],
          "stateMutability": "view",
          "type": "function"
        },
        {
          "inputs": [],
          "name": "mintAtTime",
          "outputs": [],
          "stateMutability": "nonpayable",
          "type": "function"
        },
        {
          "inputs": [],
          "name": "mintTime",
          "outputs": [
            {
              "internalType": "uint256",
              "name": "",
              "type": "uint256"
            }
          ],
          "stateMutability": "view",
          "type": "function"
        },
        {
          "inputs": [],
          "name": "mintTo",
          "outputs": [],
          "stateMutability": "payable",
          "type": "function"
        },
        {
          "inputs": [],
          "name": "name",
          "outputs": [
            {
              "internalType": "string",
              "name": "",
              "type": "string"
            }
          ],
          "stateMutability": "view",
          "type": "function"
        },
        {
          "inputs": [],
          "name": "owner",
          "outputs": [
            {
              "internalType": "address",
              "name": "",
              "type": "address"
            }
          ],
          "stateMutability": "view",
          "type": "function"
        },
        {
          "inputs": [
            {
              "internalType": "uint256",
              "name": "tokenId",
              "type": "uint256"
            }
          ],
          "name": "ownerOf",
          "outputs": [
            {
              "internalType": "address",
              "name": "",
              "type": "address"
            }
          ],
          "stateMutability": "view",
          "type": "function"
        },
        {
          "inputs": [],
          "name": "price",
          "outputs": [
            {
              "internalType": "uint256",
              "name": "",
              "type": "uint256"
            }
          ],
          "stateMutability": "view",
          "type": "function"
        },
        {
          "inputs": [],
          "name": "qtyPerWallet",
          "outputs": [
            {
              "internalType": "uint256",
              "name": "",
              "type": "uint256"
            }
          ],
          "stateMutability": "view",
          "type": "function"
        },
        {
          "inputs": [],
          "name": "renounceOwnership",
          "outputs": [],
          "stateMutability": "nonpayable",
          "type": "function"
        },
        {
          "inputs": [
            {
              "internalType": "address",
              "name": "from",
              "type": "address"
            },
            {
              "internalType": "address",
              "name": "to",
              "type": "address"
            },
            {
              "internalType": "uint256",
              "name": "tokenId",
              "type": "uint256"
            }
          ],
          "name": "safeTransferFrom",
          "outputs": [],
          "stateMutability": "nonpayable",
          "type": "function"
        },
        {
          "inputs": [
            {
              "internalType": "address",
              "name": "from",
              "type": "address"
            },
            {
              "internalType": "address",
              "name": "to",
              "type": "address"
            },
            {
              "internalType": "uint256",
              "name": "tokenId",
              "type": "uint256"
            },
            {
              "internalType": "bytes",
              "name": "_data",
              "type": "bytes"
            }
          ],
          "name": "safeTransferFrom",
          "outputs": [],
          "stateMutability": "nonpayable",
          "type": "function"
        },
        {
          "inputs": [
            {
              "internalType": "address",
              "name": "operator",
              "type": "address"
            },
            {
              "internalType": "bool",
              "name": "approved",
              "type": "bool"
            }
          ],
          "name": "setApprovalForAll",
          "outputs": [],
          "stateMutability": "nonpayable",
          "type": "function"
        },
        {
          "inputs": [
            {
              "internalType": "uint256",
              "name": "_mintTime",
              "type": "uint256"
            }
          ],
          "name": "setMintTime",
          "outputs": [],
          "stateMutability": "nonpayable",
          "type": "function"
        },
        {
          "inputs": [
            {
              "internalType": "bytes4",
              "name": "interfaceId",
              "type": "bytes4"
            }
          ],
          "name": "supportsInterface",
          "outputs": [
            {
              "internalType": "bool",
              "name": "",
              "type": "bool"
            }
          ],
          "stateMutability": "view",
          "type": "function"
        },
        {
          "inputs": [],
          "name": "symbol",
          "outputs": [
            {
              "internalType": "string",
              "name": "",
              "type": "string"
            }
          ],
          "stateMutability": "view",
          "type": "function"
        },
        {
          "inputs": [
            {
              "internalType": "uint256",
              "name": "tokenId",
              "type": "uint256"
            }
          ],
          "name": "tokenURI",
          "outputs": [
            {
              "internalType": "string",
              "name": "",
              "type": "string"
            }
          ],
          "stateMutability": "view",
          "type": "function"
        },
        {
          "inputs": [],
          "name": "totalSupply",
          "outputs": [
            {
              "internalType": "uint256",
              "name": "",
              "type": "uint256"
            }
          ],
          "stateMutability": "view",
          "type": "function"
        },
        {
          "inputs": [
            {
              "internalType": "address",
              "name": "from",
              "type": "address"
            },
            {
              "internalType": "address",
              "name": "to",
              "type": "address"
            },
            {
              "internalType": "uint256",
              "name": "tokenId",
              "type": "uint256"
            }
          ],
          "name": "transferFrom",
          "outputs": [],
          "stateMutability": "nonpayable",
          "type": "function"
        },
        {
          "inputs": [
            {
              "internalType": "address",
              "name": "newOwner",
              "type": "address"
            }
          ],
          "name": "transferOwnership",
          "outputs": [],
          "stateMutability": "nonpayable",
          "type": "function"
        },
        {
          "inputs": [],
          "name": "withdraw",
          "outputs": [],
          "stateMutability": "nonpayable",
          "type": "function"
        }
      ],
      "evm": {
        "bytecode": {
          "linkReferences": {},
          "object": "6080604052662386f26fc1000060085560016009556362c6e6e0600a553480156200002957600080fd5b506040805180820182526009815268119a5c9cdd0813919560ba1b6020808301918252835180850190945260068452650c5cdd13919560d21b908401528151919291620000799160009162000128565b5080516200008f90600190602084019062000128565b505050620000ac620000a6620000c960201b60201c565b620000cd565b620000c360076200011f60201b62000d401760201c565b6200020b565b3390565b600680546001600160a01b038381166001600160a01b0319831681179093556040519116919082907f8be0079c531659141344cd1fd0a4f28419497f9722a3daafe3b4186f6b6457e090600090a35050565b80546001019055565b8280546200013690620001ce565b90600052602060002090601f0160209004810192826200015a5760008555620001a5565b82601f106200017557805160ff1916838001178555620001a5565b82800160010185558215620001a5579182015b82811115620001a557825182559160200191906001019062000188565b50620001b3929150620001b7565b5090565b5b80821115620001b35760008155600101620001b8565b600181811c90821680620001e357607f821691505b602082108114156200020557634e487b7160e01b600052602260045260246000fd5b50919050565b611a73806200021b6000396000f3fe6080604052600436106101815760003560e01c806386478122116100d1578063b88d4fde1161008a578063dda52d5311610064578063dda52d531461042e578063df96d3a41461044e578063e985e9c514610463578063f2fde38b146104ac57600080fd5b8063b88d4fde146103b8578063c202df68146103d8578063c87b56dd1461040e57600080fd5b806386478122146103315780638da5cb5b14610347578063921234701461036557806395d89b411461036d578063a035b1fe14610382578063a22cb4651461039857600080fd5b80633aa5af231161013e5780634a60f620116101185780634a60f620146102c55780636352211e146102dc57806370a08231146102fc578063715018a61461031c57600080fd5b80633aa5af231461027a5780633ccfd60b1461029057806342842e0e146102a557600080fd5b806301ffc9a71461018657806306fdde03146101bb578063081812fc146101dd578063095ea7b31461021557806318160ddd1461023757806323b872dd1461025a575b600080fd5b34801561019257600080fd5b506101a66101a1366004611720565b6104cc565b60405190151581526020015b60405180910390f35b3480156101c757600080fd5b506101d061051e565b6040516101b2919061180b565b3480156101e957600080fd5b506101fd6101f836600461175a565b6105b0565b6040516001600160a01b0390911681526020016101b2565b34801561022157600080fd5b506102356102303660046116f6565b61064a565b005b34801561024357600080fd5b5061024c610760565b6040519081526020016101b2565b34801561026657600080fd5b506102356102753660046115a2565b61077c565b34801561028657600080fd5b5061024c60095481565b34801561029c57600080fd5b506102356107ad565b3480156102b157600080fd5b506102356102c03660046115a2565b6107fd565b3480156102d157600080fd5b5060075461024c9081565b3480156102e857600080fd5b506101fd6102f736600461175a565b610818565b34801561030857600080fd5b5061024c610317366004611554565b61088f565b34801561032857600080fd5b50610235610916565b34801561033d57600080fd5b5061024c600a5481565b34801561035357600080fd5b506006546001600160a01b03166101fd565b61023561094a565b34801561037957600080fd5b506101d0610a5e565b34801561038e57600080fd5b5061024c60085481565b3480156103a457600080fd5b506102356103b33660046116ba565b610a6d565b3480156103c457600080fd5b506102356103d33660046115de565b610a7c565b3480156103e457600080fd5b506101fd6103f336600461175a565b600b602052600090815260409020546001600160a01b031681565b34801561041a57600080fd5b506101d061042936600461175a565b610ab4565b34801561043a57600080fd5b5061023561044936600461175a565b610b9c565b34801561045a57600080fd5b50610235610bcb565b34801561046f57600080fd5b506101a661047e36600461156f565b6001600160a01b03918216600090815260056020908152604080832093909416825291909152205460ff1690565b3480156104b857600080fd5b506102356104c7366004611554565b610ca8565b60006001600160e01b031982166380ac58cd60e01b14806104fd57506001600160e01b03198216635b5e139f60e01b145b8061051857506301ffc9a760e01b6001600160e01b03198316145b92915050565b60606000805461052d90611965565b80601f016020809104026020016040519081016040528092919081815260200182805461055990611965565b80156105a65780601f1061057b576101008083540402835291602001916105a6565b820191906000526020600020905b81548152906001019060200180831161058957829003601f168201915b5050505050905090565b6000818152600260205260408120546001600160a01b031661062e5760405162461bcd60e51b815260206004820152602c60248201527f4552433732313a20617070726f76656420717565727920666f72206e6f6e657860448201526b34b9ba32b73a103a37b5b2b760a11b60648201526084015b60405180910390fd5b506000908152600460205260409020546001600160a01b031690565b600061065582610818565b9050806001600160a01b0316836001600160a01b031614156106c35760405162461bcd60e51b815260206004820152602160248201527f4552433732313a20617070726f76616c20746f2063757272656e74206f776e656044820152603960f91b6064820152608401610625565b336001600160a01b03821614806106df57506106df813361047e565b6107515760405162461bcd60e51b815260206004820152603860248201527f4552433732313a20617070726f76652063616c6c6572206973206e6f74206f7760448201527f6e6572206e6f7220617070726f76656420666f7220616c6c00000000000000006064820152608401610625565b61075b8383610d49565b505050565b6000600161076d60075490565b6107779190611922565b905090565b6107863382610db7565b6107a25760405162461bcd60e51b8152600401610625906118a5565b61075b838383610eae565b6006546001600160a01b031633146107d75760405162461bcd60e51b815260040161062590611870565b60405133904780156108fc02916000818181858888f193505050506107fb57600080fd5b565b61075b83838360405180602001604052806000815250610a7c565b6000818152600260205260408120546001600160a01b0316806105185760405162461bcd60e51b815260206004820152602960248201527f4552433732313a206f776e657220717565727920666f72206e6f6e657869737460448201526832b73a103a37b5b2b760b91b6064820152608401610625565b60006001600160a01b0382166108fa5760405162461bcd60e51b815260206004820152602a60248201527f4552433732313a2062616c616e636520717565727920666f7220746865207a65604482015269726f206164647265737360b01b6064820152608401610625565b506001600160a01b031660009081526003602052604090205490565b6006546001600160a01b031633146109405760405162461bcd60e51b815260040161062590611870565b6107fb600061104a565b600061095560075490565b90506009546109633361088f565b106109c65760405162461bcd60e51b815260206004820152602d60248201527f507572636861736520776f756c642065786365656420746865207175616e746960448201526c1d1e481c195c881dd85b1b195d609a1b6064820152608401610625565b600854341015610a185760405162461bcd60e51b815260206004820152601960248201527f65746865722073656e6420697320756e646572207072696365000000000000006044820152606401610625565b610a26600780546001019055565b600a54421115610a3d57610a3a338261109c565b50565b6000818152600b6020526040902080546001600160a01b0319163317905550565b60606001805461052d90611965565b610a783383836110b6565b5050565b610a863383610db7565b610aa25760405162461bcd60e51b8152600401610625906118a5565b610aae84848484611185565b50505050565b6000818152600260205260409020546060906001600160a01b0316610b335760405162461bcd60e51b815260206004820152602f60248201527f4552433732314d657461646174613a2055524920717565727920666f72206e6f60448201526e3732bc34b9ba32b73a103a37b5b2b760891b6064820152608401610625565b6000610b4a60408051602081019091526000815290565b90506000815111610b6a5760405180602001604052806000815250610b95565b80610b74846111b8565b604051602001610b8592919061179f565b6040516020818303038152906040525b9392505050565b6006546001600160a01b03163314610bc65760405162461bcd60e51b815260040161062590611870565b600a55565b600a54421015610c1d5760405162461bcd60e51b815260206004820181905260248201527f596f752063616e206765742031204e465420617420676976656e2074696d65216044820152606401610625565b60015b610c28610760565b8111610a3a576000818152600b60205260408120546001600160a01b031615610c95576000828152600b6020526040902054610c6d906001600160a01b03168361109c565b6000828152600b6020526040902080546001600160a01b0319166001600160a01b0383161790555b5080610ca0816119a0565b915050610c20565b6006546001600160a01b03163314610cd25760405162461bcd60e51b815260040161062590611870565b6001600160a01b038116610d375760405162461bcd60e51b815260206004820152602660248201527f4f776e61626c653a206e6577206f776e657220697320746865207a65726f206160448201526564647265737360d01b6064820152608401610625565b610a3a8161104a565b80546001019055565b600081815260046020526040902080546001600160a01b0319166001600160a01b0384169081179091558190610d7e82610818565b6001600160a01b03167f8c5be1e5ebec7d5bd14f71427d1e84f3dd0314c0f7b2291e5b200ac8c7c3b92560405160405180910390a45050565b6000818152600260205260408120546001600160a01b0316610e305760405162461bcd60e51b815260206004820152602c60248201527f4552433732313a206f70657261746f7220717565727920666f72206e6f6e657860448201526b34b9ba32b73a103a37b5b2b760a11b6064820152608401610625565b6000610e3b83610818565b9050806001600160a01b0316846001600160a01b03161480610e765750836001600160a01b0316610e6b846105b0565b6001600160a01b0316145b80610ea657506001600160a01b0380821660009081526005602090815260408083209388168352929052205460ff165b949350505050565b826001600160a01b0316610ec182610818565b6001600160a01b031614610f255760405162461bcd60e51b815260206004820152602560248201527f4552433732313a207472616e736665722066726f6d20696e636f72726563742060448201526437bbb732b960d91b6064820152608401610625565b6001600160a01b038216610f875760405162461bcd60e51b8152602060048201526024808201527f4552433732313a207472616e7366657220746f20746865207a65726f206164646044820152637265737360e01b6064820152608401610625565b610f92600082610d49565b6001600160a01b0383166000908152600360205260408120805460019290610fbb908490611922565b90915550506001600160a01b0382166000908152600360205260408120805460019290610fe99084906118f6565b909155505060008181526002602052604080822080546001600160a01b0319166001600160a01b0386811691821790925591518493918716917fddf252ad1be2c89b69c2b068fc378daa952ba7f163c4a11628f55a4df523b3ef91a4505050565b600680546001600160a01b038381166001600160a01b0319831681179093556040519116919082907f8be0079c531659141344cd1fd0a4f28419497f9722a3daafe3b4186f6b6457e090600090a35050565b610a788282604051806020016040528060008152506112b6565b816001600160a01b0316836001600160a01b031614156111185760405162461bcd60e51b815260206004820152601960248201527f4552433732313a20617070726f766520746f2063616c6c6572000000000000006044820152606401610625565b6001600160a01b03838116600081815260056020908152604080832094871680845294825291829020805460ff191686151590811790915591519182527f17307eab39ab6107e8899845ad3d59bd9653f200f220920489ca2b5937696c31910160405180910390a3505050565b611190848484610eae565b61119c848484846112e9565b610aae5760405162461bcd60e51b81526004016106259061181e565b6060816111dc5750506040805180820190915260018152600360fc1b602082015290565b8160005b811561120657806111f0816119a0565b91506111ff9050600a8361190e565b91506111e0565b60008167ffffffffffffffff81111561122157611221611a11565b6040519080825280601f01601f19166020018201604052801561124b576020820181803683370190505b5090505b8415610ea657611260600183611922565b915061126d600a866119bb565b6112789060306118f6565b60f81b81838151811061128d5761128d6119fb565b60200101906001600160f81b031916908160001a9053506112af600a8661190e565b945061124f565b6112c083836113f6565b6112cd60008484846112e9565b61075b5760405162461bcd60e51b81526004016106259061181e565b60006001600160a01b0384163b156113eb57604051630a85bd0160e11b81526001600160a01b0385169063150b7a029061132d9033908990889088906004016117ce565b602060405180830381600087803b15801561134757600080fd5b505af1925050508015611377575060408051601f3d908101601f191682019092526113749181019061173d565b60015b6113d1573d8080156113a5576040519150601f19603f3d011682016040523d82523d6000602084013e6113aa565b606091505b5080516113c95760405162461bcd60e51b81526004016106259061181e565b805181602001fd5b6001600160e01b031916630a85bd0160e11b149050610ea6565b506001949350505050565b6001600160a01b03821661144c5760405162461bcd60e51b815260206004820181905260248201527f4552433732313a206d696e7420746f20746865207a65726f20616464726573736044820152606401610625565b6000818152600260205260409020546001600160a01b0316156114b15760405162461bcd60e51b815260206004820152601c60248201527f4552433732313a20746f6b656e20616c7265616479206d696e746564000000006044820152606401610625565b6001600160a01b03821660009081526003602052604081208054600192906114da9084906118f6565b909155505060008181526002602052604080822080546001600160a01b0319166001600160a01b03861690811790915590518392907fddf252ad1be2c89b69c2b068fc378daa952ba7f163c4a11628f55a4df523b3ef908290a45050565b80356001600160a01b038116811461154f57600080fd5b919050565b60006020828403121561156657600080fd5b610b9582611538565b6000806040838503121561158257600080fd5b61158b83611538565b915061159960208401611538565b90509250929050565b6000806000606084860312156115b757600080fd5b6115c084611538565b92506115ce60208501611538565b9150604084013590509250925092565b600080600080608085870312156115f457600080fd5b6115fd85611538565b935061160b60208601611538565b925060408501359150606085013567ffffffffffffffff8082111561162f57600080fd5b818701915087601f83011261164357600080fd5b81358181111561165557611655611a11565b604051601f8201601f19908116603f0116810190838211818310171561167d5761167d611a11565b816040528281528a602084870101111561169657600080fd5b82602086016020830137600060208483010152809550505050505092959194509250565b600080604083850312156116cd57600080fd5b6116d683611538565b9150602083013580151581146116eb57600080fd5b809150509250929050565b6000806040838503121561170957600080fd5b61171283611538565b946020939093013593505050565b60006020828403121561173257600080fd5b8135610b9581611a27565b60006020828403121561174f57600080fd5b8151610b9581611a27565b60006020828403121561176c57600080fd5b5035919050565b6000815180845261178b816020860160208601611939565b601f01601f19169290920160200192915050565b600083516117b1818460208801611939565b8351908301906117c5818360208801611939565b01949350505050565b6001600160a01b038581168252841660208201526040810183905260806060820181905260009061180190830184611773565b9695505050505050565b602081526000610b956020830184611773565b60208082526032908201527f4552433732313a207472616e7366657220746f206e6f6e20455243373231526560408201527131b2b4bb32b91034b6b83632b6b2b73a32b960711b606082015260800190565b6020808252818101527f4f776e61626c653a2063616c6c6572206973206e6f7420746865206f776e6572604082015260600190565b60208082526031908201527f4552433732313a207472616e736665722063616c6c6572206973206e6f74206f6040820152701ddb995c881b9bdc88185c1c1c9bdd9959607a1b606082015260800190565b60008219821115611909576119096119cf565b500190565b60008261191d5761191d6119e5565b500490565b600082821015611934576119346119cf565b500390565b60005b8381101561195457818101518382015260200161193c565b83811115610aae5750506000910152565b600181811c9082168061197957607f821691505b6020821081141561199a57634e487b7160e01b600052602260045260246000fd5b50919050565b60006000198214156119b4576119b46119cf565b5060010190565b6000826119ca576119ca6119e5565b500690565b634e487b7160e01b600052601160045260246000fd5b634e487b7160e01b600052601260045260246000fd5b634e487b7160e01b600052603260045260246000fd5b634e487b7160e01b600052604160045260246000fd5b6001600160e01b031981168114610a3a57600080fdfea2646970667358221220e6c4e214ac28aab132ed3794c7efdb7d580753664a326ce565b71ce812d1d56064736f6c63430008070033",
          "opcodes": "PUSH1 0x80 PUSH1 0x40 MSTORE PUSH7 0x2386F26FC10000 PUSH1 0x8 SSTORE PUSH1 0x1 PUSH1 0x9 SSTORE PUSH4 0x62C6E6E0 PUSH1 0xA SSTORE CALLVALUE DUP1 ISZERO PUSH3 0x29 JUMPI PUSH1 0x0 DUP1 REVERT JUMPDEST POP PUSH1 0x40 DUP1 MLOAD DUP1 DUP3 ADD DUP3 MSTORE PUSH1 0x9 DUP2 MSTORE PUSH9 0x119A5C9CDD08139195 PUSH1 0xBA SHL PUSH1 0x20 DUP1 DUP4 ADD SWAP2 DUP3 MSTORE DUP4 MLOAD DUP1 DUP6 ADD SWAP1 SWAP5 MSTORE PUSH1 0x6 DUP5 MSTORE PUSH6 0xC5CDD139195 PUSH1 0xD2 SHL SWAP1 DUP5 ADD MSTORE DUP2 MLOAD SWAP2 SWAP3 SWAP2 PUSH3 0x79 SWAP2 PUSH1 0x0 SWAP2 PUSH3 0x128 JUMP JUMPDEST POP DUP1 MLOAD PUSH3 0x8F SWAP1 PUSH1 0x1 SWAP1 PUSH1 0x20 DUP5 ADD SWAP1 PUSH3 0x128 JUMP JUMPDEST POP POP POP PUSH3 0xAC PUSH3 0xA6 PUSH3 0xC9 PUSH1 0x20 SHL PUSH1 0x20 SHR JUMP JUMPDEST PUSH3 0xCD JUMP JUMPDEST PUSH3 0xC3 PUSH1 0x7 PUSH3 0x11F PUSH1 0x20 SHL PUSH3 0xD40 OR PUSH1 0x20 SHR JUMP JUMPDEST PUSH3 0x20B JUMP JUMPDEST CALLER SWAP1 JUMP JUMPDEST PUSH1 0x6 DUP1 SLOAD PUSH1 0x1 PUSH1 0x1 PUSH1 0xA0 SHL SUB DUP4 DUP2 AND PUSH1 0x1 PUSH1 0x1 PUSH1 0xA0 SHL SUB NOT DUP4 AND DUP2 OR SWAP1 SWAP4 SSTORE PUSH1 0x40 MLOAD SWAP2 AND SWAP2 SWAP1 DUP3 SWAP1 PUSH32 0x8BE0079C531659141344CD1FD0A4F28419497F9722A3DAAFE3B4186F6B6457E0 SWAP1 PUSH1 0x0 SWAP1 LOG3 POP POP JUMP JUMPDEST DUP1 SLOAD PUSH1 0x1 ADD SWAP1 SSTORE JUMP JUMPDEST DUP3 DUP1 SLOAD PUSH3 0x136 SWAP1 PUSH3 0x1CE JUMP JUMPDEST SWAP1 PUSH1 0x0 MSTORE PUSH1 0x20 PUSH1 0x0 KECCAK256 SWAP1 PUSH1 0x1F ADD PUSH1 0x20 SWAP1 DIV DUP2 ADD SWAP3 DUP3 PUSH3 0x15A JUMPI PUSH1 0x0 DUP6 SSTORE PUSH3 0x1A5 JUMP JUMPDEST DUP3 PUSH1 0x1F LT PUSH3 0x175 JUMPI DUP1 MLOAD PUSH1 0xFF NOT AND DUP4 DUP1 ADD OR DUP6 SSTORE PUSH3 0x1A5 JUMP JUMPDEST DUP3 DUP1 ADD PUSH1 0x1 ADD DUP6 SSTORE DUP3 ISZERO PUSH3 0x1A5 JUMPI SWAP2 DUP3 ADD JUMPDEST DUP3 DUP2 GT ISZERO PUSH3 0x1A5 JUMPI DUP3 MLOAD DUP3 SSTORE SWAP2 PUSH1 0x20 ADD SWAP2 SWAP1 PUSH1 0x1 ADD SWAP1 PUSH3 0x188 JUMP JUMPDEST POP PUSH3 0x1B3 SWAP3 SWAP2 POP PUSH3 0x1B7 JUMP JUMPDEST POP SWAP1 JUMP JUMPDEST JUMPDEST DUP1 DUP3 GT ISZERO PUSH3 0x1B3 JUMPI PUSH1 0x0 DUP2 SSTORE PUSH1 0x1 ADD PUSH3 0x1B8 JUMP JUMPDEST PUSH1 0x1 DUP2 DUP2 SHR SWAP1 DUP3 AND DUP1 PUSH3 0x1E3 JUMPI PUSH1 0x7F DUP3 AND SWAP2 POP JUMPDEST PUSH1 0x20 DUP3 LT DUP2 EQ ISZERO PUSH3 0x205 JUMPI PUSH4 0x4E487B71 PUSH1 0xE0 SHL PUSH1 0x0 MSTORE PUSH1 0x22 PUSH1 0x4 MSTORE PUSH1 0x24 PUSH1 0x0 REVERT JUMPDEST POP SWAP2 SWAP1 POP JUMP JUMPDEST PUSH2 0x1A73 DUP1 PUSH3 0x21B PUSH1 0x0 CODECOPY PUSH1 0x0 RETURN INVALID PUSH1 0x80 PUSH1 0x40 MSTORE PUSH1 0x4 CALLDATASIZE LT PUSH2 0x181 JUMPI PUSH1 0x0 CALLDATALOAD PUSH1 0xE0 SHR DUP1 PUSH4 0x86478122 GT PUSH2 0xD1 JUMPI DUP1 PUSH4 0xB88D4FDE GT PUSH2 0x8A JUMPI DUP1 PUSH4 0xDDA52D53 GT PUSH2 0x64 JUMPI DUP1 PUSH4 0xDDA52D53 EQ PUSH2 0x42E JUMPI DUP1 PUSH4 0xDF96D3A4 EQ PUSH2 0x44E JUMPI DUP1 PUSH4 0xE985E9C5 EQ PUSH2 0x463 JUMPI DUP1 PUSH4 0xF2FDE38B EQ PUSH2 0x4AC JUMPI PUSH1 0x0 DUP1 REVERT JUMPDEST DUP1 PUSH4 0xB88D4FDE EQ PUSH2 0x3B8 JUMPI DUP1 PUSH4 0xC202DF68 EQ PUSH2 0x3D8 JUMPI DUP1 PUSH4 0xC87B56DD EQ PUSH2 0x40E JUMPI PUSH1 0x0 DUP1 REVERT JUMPDEST DUP1 PUSH4 0x86478122 EQ PUSH2 0x331 JUMPI DUP1 PUSH4 0x8DA5CB5B EQ PUSH2 0x347 JUMPI DUP1 PUSH4 0x92123470 EQ PUSH2 0x365 JUMPI DUP1 PUSH4 0x95D89B41 EQ PUSH2 0x36D JUMPI DUP1 PUSH4 0xA035B1FE EQ PUSH2 0x382 JUMPI DUP1 PUSH4 0xA22CB465 EQ PUSH2 0x398 JUMPI PUSH1 0x0 DUP1 REVERT JUMPDEST DUP1 PUSH4 0x3AA5AF23 GT PUSH2 0x13E JUMPI DUP1 PUSH4 0x4A60F620 GT PUSH2 0x118 JUMPI DUP1 PUSH4 0x4A60F620 EQ PUSH2 0x2C5 JUMPI DUP1 PUSH4 0x6352211E EQ PUSH2 0x2DC JUMPI DUP1 PUSH4 0x70A08231 EQ PUSH2 0x2FC JUMPI DUP1 PUSH4 0x715018A6 EQ PUSH2 0x31C JUMPI PUSH1 0x0 DUP1 REVERT JUMPDEST DUP1 PUSH4 0x3AA5AF23 EQ PUSH2 0x27A JUMPI DUP1 PUSH4 0x3CCFD60B EQ PUSH2 0x290 JUMPI DUP1 PUSH4 0x42842E0E EQ PUSH2 0x2A5 JUMPI PUSH1 0x0 DUP1 REVERT JUMPDEST DUP1 PUSH4 0x1FFC9A7 EQ PUSH2 0x186 JUMPI DUP1 PUSH4 0x6FDDE03 EQ PUSH2 0x1BB JUMPI DUP1 PUSH4 0x81812FC EQ PUSH2 0x1DD JUMPI DUP1 PUSH4 0x95EA7B3 EQ PUSH2 0x215 JUMPI DUP1 PUSH4 0x18160DDD EQ PUSH2 0x237 JUMPI DUP1 PUSH4 0x23B872DD EQ PUSH2 0x25A JUMPI JUMPDEST PUSH1 0x0 DUP1 REVERT JUMPDEST CALLVALUE DUP1 ISZERO PUSH2 0x192 JUMPI PUSH1 0x0 DUP1 REVERT JUMPDEST POP PUSH2 0x1A6 PUSH2 0x1A1 CALLDATASIZE PUSH1 0x4 PUSH2 0x1720 JUMP JUMPDEST PUSH2 0x4CC JUMP JUMPDEST PUSH1 0x40 MLOAD SWAP1 ISZERO ISZERO DUP2 MSTORE PUSH1 0x20 ADD JUMPDEST PUSH1 0x40 MLOAD DUP1 SWAP2 SUB SWAP1 RETURN JUMPDEST CALLVALUE DUP1 ISZERO PUSH2 0x1C7 JUMPI PUSH1 0x0 DUP1 REVERT JUMPDEST POP PUSH2 0x1D0 PUSH2 0x51E JUMP JUMPDEST PUSH1 0x40 MLOAD PUSH2 0x1B2 SWAP2 SWAP1 PUSH2 0x180B JUMP JUMPDEST CALLVALUE DUP1 ISZERO PUSH2 0x1E9 JUMPI PUSH1 0x0 DUP1 REVERT JUMPDEST POP PUSH2 0x1FD PUSH2 0x1F8 CALLDATASIZE PUSH1 0x4 PUSH2 0x175A JUMP JUMPDEST PUSH2 0x5B0 JUMP JUMPDEST PUSH1 0x40 MLOAD PUSH1 0x1 PUSH1 0x1 PUSH1 0xA0 SHL SUB SWAP1 SWAP2 AND DUP2 MSTORE PUSH1 0x20 ADD PUSH2 0x1B2 JUMP JUMPDEST CALLVALUE DUP1 ISZERO PUSH2 0x221 JUMPI PUSH1 0x0 DUP1 REVERT JUMPDEST POP PUSH2 0x235 PUSH2 0x230 CALLDATASIZE PUSH1 0x4 PUSH2 0x16F6 JUMP JUMPDEST PUSH2 0x64A JUMP JUMPDEST STOP JUMPDEST CALLVALUE DUP1 ISZERO PUSH2 0x243 JUMPI PUSH1 0x0 DUP1 REVERT JUMPDEST POP PUSH2 0x24C PUSH2 0x760 JUMP JUMPDEST PUSH1 0x40 MLOAD SWAP1 DUP2 MSTORE PUSH1 0x20 ADD PUSH2 0x1B2 JUMP JUMPDEST CALLVALUE DUP1 ISZERO PUSH2 0x266 JUMPI PUSH1 0x0 DUP1 REVERT JUMPDEST POP PUSH2 0x235 PUSH2 0x275 CALLDATASIZE PUSH1 0x4 PUSH2 0x15A2 JUMP JUMPDEST PUSH2 0x77C JUMP JUMPDEST CALLVALUE DUP1 ISZERO PUSH2 0x286 JUMPI PUSH1 0x0 DUP1 REVERT JUMPDEST POP PUSH2 0x24C PUSH1 0x9 SLOAD DUP2 JUMP JUMPDEST CALLVALUE DUP1 ISZERO PUSH2 0x29C JUMPI PUSH1 0x0 DUP1 REVERT JUMPDEST POP PUSH2 0x235 PUSH2 0x7AD JUMP JUMPDEST CALLVALUE DUP1 ISZERO PUSH2 0x2B1 JUMPI PUSH1 0x0 DUP1 REVERT JUMPDEST POP PUSH2 0x235 PUSH2 0x2C0 CALLDATASIZE PUSH1 0x4 PUSH2 0x15A2 JUMP JUMPDEST PUSH2 0x7FD JUMP JUMPDEST CALLVALUE DUP1 ISZERO PUSH2 0x2D1 JUMPI PUSH1 0x0 DUP1 REVERT JUMPDEST POP PUSH1 0x7 SLOAD PUSH2 0x24C SWAP1 DUP2 JUMP JUMPDEST CALLVALUE DUP1 ISZERO PUSH2 0x2E8 JUMPI PUSH1 0x0 DUP1 REVERT JUMPDEST POP PUSH2 0x1FD PUSH2 0x2F7 CALLDATASIZE PUSH1 0x4 PUSH2 0x175A JUMP JUMPDEST PUSH2 0x818 JUMP JUMPDEST CALLVALUE DUP1 ISZERO PUSH2 0x308 JUMPI PUSH1 0x0 DUP1 REVERT JUMPDEST POP PUSH2 0x24C PUSH2 0x317 CALLDATASIZE PUSH1 0x4 PUSH2 0x1554 JUMP JUMPDEST PUSH2 0x88F JUMP JUMPDEST CALLVALUE DUP1 ISZERO PUSH2 0x328 JUMPI PUSH1 0x0 DUP1 REVERT JUMPDEST POP PUSH2 0x235 PUSH2 0x916 JUMP JUMPDEST CALLVALUE DUP1 ISZERO PUSH2 0x33D JUMPI PUSH1 0x0 DUP1 REVERT JUMPDEST POP PUSH2 0x24C PUSH1 0xA SLOAD DUP2 JUMP JUMPDEST CALLVALUE DUP1 ISZERO PUSH2 0x353 JUMPI PUSH1 0x0 DUP1 REVERT JUMPDEST POP PUSH1 0x6 SLOAD PUSH1 0x1 PUSH1 0x1 PUSH1 0xA0 SHL SUB AND PUSH2 0x1FD JUMP JUMPDEST PUSH2 0x235 PUSH2 0x94A JUMP JUMPDEST CALLVALUE DUP1 ISZERO PUSH2 0x379 JUMPI PUSH1 0x0 DUP1 REVERT JUMPDEST POP PUSH2 0x1D0 PUSH2 0xA5E JUMP JUMPDEST CALLVALUE DUP1 ISZERO PUSH2 0x38E JUMPI PUSH1 0x0 DUP1 REVERT JUMPDEST POP PUSH2 0x24C PUSH1 0x8 SLOAD DUP2 JUMP JUMPDEST CALLVALUE DUP1 ISZERO PUSH2 0x3A4 JUMPI PUSH1 0x0 DUP1 REVERT JUMPDEST POP PUSH2 0x235 PUSH2 0x3B3 CALLDATASIZE PUSH1 0x4 PUSH2 0x16BA JUMP JUMPDEST PUSH2 0xA6D JUMP JUMPDEST CALLVALUE DUP1 ISZERO PUSH2 0x3C4 JUMPI PUSH1 0x0 DUP1 REVERT JUMPDEST POP PUSH2 0x235 PUSH2 0x3D3 CALLDATASIZE PUSH1 0x4 PUSH2 0x15DE JUMP JUMPDEST PUSH2 0xA7C JUMP JUMPDEST CALLVALUE DUP1 ISZERO PUSH2 0x3E4 JUMPI PUSH1 0x0 DUP1 REVERT JUMPDEST POP PUSH2 0x1FD PUSH2 0x3F3 CALLDATASIZE PUSH1 0x4 PUSH2 0x175A JUMP JUMPDEST PUSH1 0xB PUSH1 0x20 MSTORE PUSH1 0x0 SWAP1 DUP2 MSTORE PUSH1 0x40 SWAP1 KECCAK256 SLOAD PUSH1 0x1 PUSH1 0x1 PUSH1 0xA0 SHL SUB AND DUP2 JUMP JUMPDEST CALLVALUE DUP1 ISZERO PUSH2 0x41A JUMPI PUSH1 0x0 DUP1 REVERT JUMPDEST POP PUSH2 0x1D0 PUSH2 0x429 CALLDATASIZE PUSH1 0x4 PUSH2 0x175A JUMP JUMPDEST PUSH2 0xAB4 JUMP JUMPDEST CALLVALUE DUP1 ISZERO PUSH2 0x43A JUMPI PUSH1 0x0 DUP1 REVERT JUMPDEST POP PUSH2 0x235 PUSH2 0x449 CALLDATASIZE PUSH1 0x4 PUSH2 0x175A JUMP JUMPDEST PUSH2 0xB9C JUMP JUMPDEST CALLVALUE DUP1 ISZERO PUSH2 0x45A JUMPI PUSH1 0x0 DUP1 REVERT JUMPDEST POP PUSH2 0x235 PUSH2 0xBCB JUMP JUMPDEST CALLVALUE DUP1 ISZERO PUSH2 0x46F JUMPI PUSH1 0x0 DUP1 REVERT JUMPDEST POP PUSH2 0x1A6 PUSH2 0x47E CALLDATASIZE PUSH1 0x4 PUSH2 0x156F JUMP JUMPDEST PUSH1 0x1 PUSH1 0x1 PUSH1 0xA0 SHL SUB SWAP2 DUP3 AND PUSH1 0x0 SWAP1 DUP2 MSTORE PUSH1 0x5 PUSH1 0x20 SWAP1 DUP2 MSTORE PUSH1 0x40 DUP1 DUP4 KECCAK256 SWAP4 SWAP1 SWAP5 AND DUP3 MSTORE SWAP2 SWAP1 SWAP2 MSTORE KECCAK256 SLOAD PUSH1 0xFF AND SWAP1 JUMP JUMPDEST CALLVALUE DUP1 ISZERO PUSH2 0x4B8 JUMPI PUSH1 0x0 DUP1 REVERT JUMPDEST POP PUSH2 0x235 PUSH2 0x4C7 CALLDATASIZE PUSH1 0x4 PUSH2 0x1554 JUMP JUMPDEST PUSH2 0xCA8 JUMP JUMPDEST PUSH1 0x0 PUSH1 0x1 PUSH1 0x1 PUSH1 0xE0 SHL SUB NOT DUP3 AND PUSH4 0x80AC58CD PUSH1 0xE0 SHL EQ DUP1 PUSH2 0x4FD JUMPI POP PUSH1 0x1 PUSH1 0x1 PUSH1 0xE0 SHL SUB NOT DUP3 AND PUSH4 0x5B5E139F PUSH1 0xE0 SHL EQ JUMPDEST DUP1 PUSH2 0x518 JUMPI POP PUSH4 0x1FFC9A7 PUSH1 0xE0 SHL PUSH1 0x1 PUSH1 0x1 PUSH1 0xE0 SHL SUB NOT DUP4 AND EQ JUMPDEST SWAP3 SWAP2 POP POP JUMP JUMPDEST PUSH1 0x60 PUSH1 0x0 DUP1 SLOAD PUSH2 0x52D SWAP1 PUSH2 0x1965 JUMP JUMPDEST DUP1 PUSH1 0x1F ADD PUSH1 0x20 DUP1 SWAP2 DIV MUL PUSH1 0x20 ADD PUSH1 0x40 MLOAD SWAP1 DUP2 ADD PUSH1 0x40 MSTORE DUP1 SWAP3 SWAP2 SWAP1 DUP2 DUP2 MSTORE PUSH1 0x20 ADD DUP3 DUP1 SLOAD PUSH2 0x559 SWAP1 PUSH2 0x1965 JUMP JUMPDEST DUP1 ISZERO PUSH2 0x5A6 JUMPI DUP1 PUSH1 0x1F LT PUSH2 0x57B JUMPI PUSH2 0x100 DUP1 DUP4 SLOAD DIV MUL DUP4 MSTORE SWAP2 PUSH1 0x20 ADD SWAP2 PUSH2 0x5A6 JUMP JUMPDEST DUP3 ADD SWAP2 SWAP1 PUSH1 0x0 MSTORE PUSH1 0x20 PUSH1 0x0 KECCAK256 SWAP1 JUMPDEST DUP2 SLOAD DUP2 MSTORE SWAP1 PUSH1 0x1 ADD SWAP1 PUSH1 0x20 ADD DUP1 DUP4 GT PUSH2 0x589 JUMPI DUP3 SWAP1 SUB PUSH1 0x1F AND DUP3 ADD SWAP2 JUMPDEST POP POP POP POP POP SWAP1 POP SWAP1 JUMP JUMPDEST PUSH1 0x0 DUP2 DUP2 MSTORE PUSH1 0x2 PUSH1 0x20 MSTORE PUSH1 0x40 DUP2 KECCAK256 SLOAD PUSH1 0x1 PUSH1 0x1 PUSH1 0xA0 SHL SUB AND PUSH2 0x62E JUMPI PUSH1 0x40 MLOAD PUSH3 0x461BCD PUSH1 0xE5 SHL DUP2 MSTORE PUSH1 0x20 PUSH1 0x4 DUP3 ADD MSTORE PUSH1 0x2C PUSH1 0x24 DUP3 ADD MSTORE PUSH32 0x4552433732313A20617070726F76656420717565727920666F72206E6F6E6578 PUSH1 0x44 DUP3 ADD MSTORE PUSH12 0x34B9BA32B73A103A37B5B2B7 PUSH1 0xA1 SHL PUSH1 0x64 DUP3 ADD MSTORE PUSH1 0x84 ADD JUMPDEST PUSH1 0x40 MLOAD DUP1 SWAP2 SUB SWAP1 REVERT JUMPDEST POP PUSH1 0x0 SWAP1 DUP2 MSTORE PUSH1 0x4 PUSH1 0x20 MSTORE PUSH1 0x40 SWAP1 KECCAK256 SLOAD PUSH1 0x1 PUSH1 0x1 PUSH1 0xA0 SHL SUB AND SWAP1 JUMP JUMPDEST PUSH1 0x0 PUSH2 0x655 DUP3 PUSH2 0x818 JUMP JUMPDEST SWAP1 POP DUP1 PUSH1 0x1 PUSH1 0x1 PUSH1 0xA0 SHL SUB AND DUP4 PUSH1 0x1 PUSH1 0x1 PUSH1 0xA0 SHL SUB AND EQ ISZERO PUSH2 0x6C3 JUMPI PUSH1 0x40 MLOAD PUSH3 0x461BCD PUSH1 0xE5 SHL DUP2 MSTORE PUSH1 0x20 PUSH1 0x4 DUP3 ADD MSTORE PUSH1 0x21 PUSH1 0x24 DUP3 ADD MSTORE PUSH32 0x4552433732313A20617070726F76616C20746F2063757272656E74206F776E65 PUSH1 0x44 DUP3 ADD MSTORE PUSH1 0x39 PUSH1 0xF9 SHL PUSH1 0x64 DUP3 ADD MSTORE PUSH1 0x84 ADD PUSH2 0x625 JUMP JUMPDEST CALLER PUSH1 0x1 PUSH1 0x1 PUSH1 0xA0 SHL SUB DUP3 AND EQ DUP1 PUSH2 0x6DF JUMPI POP PUSH2 0x6DF DUP2 CALLER PUSH2 0x47E JUMP JUMPDEST PUSH2 0x751 JUMPI PUSH1 0x40 MLOAD PUSH3 0x461BCD PUSH1 0xE5 SHL DUP2 MSTORE PUSH1 0x20 PUSH1 0x4 DUP3 ADD MSTORE PUSH1 0x38 PUSH1 0x24 DUP3 ADD MSTORE PUSH32 0x4552433732313A20617070726F76652063616C6C6572206973206E6F74206F77 PUSH1 0x44 DUP3 ADD MSTORE PUSH32 0x6E6572206E6F7220617070726F76656420666F7220616C6C0000000000000000 PUSH1 0x64 DUP3 ADD MSTORE PUSH1 0x84 ADD PUSH2 0x625 JUMP JUMPDEST PUSH2 0x75B DUP4 DUP4 PUSH2 0xD49 JUMP JUMPDEST POP POP POP JUMP JUMPDEST PUSH1 0x0 PUSH1 0x1 PUSH2 0x76D PUSH1 0x7 SLOAD SWAP1 JUMP JUMPDEST PUSH2 0x777 SWAP2 SWAP1 PUSH2 0x1922 JUMP JUMPDEST SWAP1 POP SWAP1 JUMP JUMPDEST PUSH2 0x786 CALLER DUP3 PUSH2 0xDB7 JUMP JUMPDEST PUSH2 0x7A2 JUMPI PUSH1 0x40 MLOAD PUSH3 0x461BCD PUSH1 0xE5 SHL DUP2 MSTORE PUSH1 0x4 ADD PUSH2 0x625 SWAP1 PUSH2 0x18A5 JUMP JUMPDEST PUSH2 0x75B DUP4 DUP4 DUP4 PUSH2 0xEAE JUMP JUMPDEST PUSH1 0x6 SLOAD PUSH1 0x1 PUSH1 0x1 PUSH1 0xA0 SHL SUB AND CALLER EQ PUSH2 0x7D7 JUMPI PUSH1 0x40 MLOAD PUSH3 0x461BCD PUSH1 0xE5 SHL DUP2 MSTORE PUSH1 0x4 ADD PUSH2 0x625 SWAP1 PUSH2 0x1870 JUMP JUMPDEST PUSH1 0x40 MLOAD CALLER SWAP1 SELFBALANCE DUP1 ISZERO PUSH2 0x8FC MUL SWAP2 PUSH1 0x0 DUP2 DUP2 DUP2 DUP6 DUP9 DUP9 CALL SWAP4 POP POP POP POP PUSH2 0x7FB JUMPI PUSH1 0x0 DUP1 REVERT JUMPDEST JUMP JUMPDEST PUSH2 0x75B DUP4 DUP4 DUP4 PUSH1 0x40 MLOAD DUP1 PUSH1 0x20 ADD PUSH1 0x40 MSTORE DUP1 PUSH1 0x0 DUP2 MSTORE POP PUSH2 0xA7C JUMP JUMPDEST PUSH1 0x0 DUP2 DUP2 MSTORE PUSH1 0x2 PUSH1 0x20 MSTORE PUSH1 0x40 DUP2 KECCAK256 SLOAD PUSH1 0x1 PUSH1 0x1 PUSH1 0xA0 SHL SUB AND DUP1 PUSH2 0x518 JUMPI PUSH1 0x40 MLOAD PUSH3 0x461BCD PUSH1 0xE5 SHL DUP2 MSTORE PUSH1 0x20 PUSH1 0x4 DUP3 ADD MSTORE PUSH1 0x29 PUSH1 0x24 DUP3 ADD MSTORE PUSH32 0x4552433732313A206F776E657220717565727920666F72206E6F6E6578697374 PUSH1 0x44 DUP3 ADD MSTORE PUSH9 0x32B73A103A37B5B2B7 PUSH1 0xB9 SHL PUSH1 0x64 DUP3 ADD MSTORE PUSH1 0x84 ADD PUSH2 0x625 JUMP JUMPDEST PUSH1 0x0 PUSH1 0x1 PUSH1 0x1 PUSH1 0xA0 SHL SUB DUP3 AND PUSH2 0x8FA JUMPI PUSH1 0x40 MLOAD PUSH3 0x461BCD PUSH1 0xE5 SHL DUP2 MSTORE PUSH1 0x20 PUSH1 0x4 DUP3 ADD MSTORE PUSH1 0x2A PUSH1 0x24 DUP3 ADD MSTORE PUSH32 0x4552433732313A2062616C616E636520717565727920666F7220746865207A65 PUSH1 0x44 DUP3 ADD MSTORE PUSH10 0x726F2061646472657373 PUSH1 0xB0 SHL PUSH1 0x64 DUP3 ADD MSTORE PUSH1 0x84 ADD PUSH2 0x625 JUMP JUMPDEST POP PUSH1 0x1 PUSH1 0x1 PUSH1 0xA0 SHL SUB AND PUSH1 0x0 SWAP1 DUP2 MSTORE PUSH1 0x3 PUSH1 0x20 MSTORE PUSH1 0x40 SWAP1 KECCAK256 SLOAD SWAP1 JUMP JUMPDEST PUSH1 0x6 SLOAD PUSH1 0x1 PUSH1 0x1 PUSH1 0xA0 SHL SUB AND CALLER EQ PUSH2 0x940 JUMPI PUSH1 0x40 MLOAD PUSH3 0x461BCD PUSH1 0xE5 SHL DUP2 MSTORE PUSH1 0x4 ADD PUSH2 0x625 SWAP1 PUSH2 0x1870 JUMP JUMPDEST PUSH2 0x7FB PUSH1 0x0 PUSH2 0x104A JUMP JUMPDEST PUSH1 0x0 PUSH2 0x955 PUSH1 0x7 SLOAD SWAP1 JUMP JUMPDEST SWAP1 POP PUSH1 0x9 SLOAD PUSH2 0x963 CALLER PUSH2 0x88F JUMP JUMPDEST LT PUSH2 0x9C6 JUMPI PUSH1 0x40 MLOAD PUSH3 0x461BCD PUSH1 0xE5 SHL DUP2 MSTORE PUSH1 0x20 PUSH1 0x4 DUP3 ADD MSTORE PUSH1 0x2D PUSH1 0x24 DUP3 ADD MSTORE PUSH32 0x507572636861736520776F756C642065786365656420746865207175616E7469 PUSH1 0x44 DUP3 ADD MSTORE PUSH13 0x1D1E481C195C881DD85B1B195D PUSH1 0x9A SHL PUSH1 0x64 DUP3 ADD MSTORE PUSH1 0x84 ADD PUSH2 0x625 JUMP JUMPDEST PUSH1 0x8 SLOAD CALLVALUE LT ISZERO PUSH2 0xA18 JUMPI PUSH1 0x40 MLOAD PUSH3 0x461BCD PUSH1 0xE5 SHL DUP2 MSTORE PUSH1 0x20 PUSH1 0x4 DUP3 ADD MSTORE PUSH1 0x19 PUSH1 0x24 DUP3 ADD MSTORE PUSH32 0x65746865722073656E6420697320756E64657220707269636500000000000000 PUSH1 0x44 DUP3 ADD MSTORE PUSH1 0x64 ADD PUSH2 0x625 JUMP JUMPDEST PUSH2 0xA26 PUSH1 0x7 DUP1 SLOAD PUSH1 0x1 ADD SWAP1 SSTORE JUMP JUMPDEST PUSH1 0xA SLOAD TIMESTAMP GT ISZERO PUSH2 0xA3D JUMPI PUSH2 0xA3A CALLER DUP3 PUSH2 0x109C JUMP JUMPDEST POP JUMP JUMPDEST PUSH1 0x0 DUP2 DUP2 MSTORE PUSH1 0xB PUSH1 0x20 MSTORE PUSH1 0x40 SWAP1 KECCAK256 DUP1 SLOAD PUSH1 0x1 PUSH1 0x1 PUSH1 0xA0 SHL SUB NOT AND CALLER OR SWAP1 SSTORE POP JUMP JUMPDEST PUSH1 0x60 PUSH1 0x1 DUP1 SLOAD PUSH2 0x52D SWAP1 PUSH2 0x1965 JUMP JUMPDEST PUSH2 0xA78 CALLER DUP4 DUP4 PUSH2 0x10B6 JUMP JUMPDEST POP POP JUMP JUMPDEST PUSH2 0xA86 CALLER DUP4 PUSH2 0xDB7 JUMP JUMPDEST PUSH2 0xAA2 JUMPI PUSH1 0x40 MLOAD PUSH3 0x461BCD PUSH1 0xE5 SHL DUP2 MSTORE PUSH1 0x4 ADD PUSH2 0x625 SWAP1 PUSH2 0x18A5 JUMP JUMPDEST PUSH2 0xAAE DUP5 DUP5 DUP5 DUP5 PUSH2 0x1185 JUMP JUMPDEST POP POP POP POP JUMP JUMPDEST PUSH1 0x0 DUP2 DUP2 MSTORE PUSH1 0x2 PUSH1 0x20 MSTORE PUSH1 0x40 SWAP1 KECCAK256 SLOAD PUSH1 0x60 SWAP1 PUSH1 0x1 PUSH1 0x1 PUSH1 0xA0 SHL SUB AND PUSH2 0xB33 JUMPI PUSH1 0x40 MLOAD PUSH3 0x461BCD PUSH1 0xE5 SHL DUP2 MSTORE PUSH1 0x20 PUSH1 0x4 DUP3 ADD MSTORE PUSH1 0x2F PUSH1 0x24 DUP3 ADD MSTORE PUSH32 0x4552433732314D657461646174613A2055524920717565727920666F72206E6F PUSH1 0x44 DUP3 ADD MSTORE PUSH15 0x3732BC34B9BA32B73A103A37B5B2B7 PUSH1 0x89 SHL PUSH1 0x64 DUP3 ADD MSTORE PUSH1 0x84 ADD PUSH2 0x625 JUMP JUMPDEST PUSH1 0x0 PUSH2 0xB4A PUSH1 0x40 DUP1 MLOAD PUSH1 0x20 DUP2 ADD SWAP1 SWAP2 MSTORE PUSH1 0x0 DUP2 MSTORE SWAP1 JUMP JUMPDEST SWAP1 POP PUSH1 0x0 DUP2 MLOAD GT PUSH2 0xB6A JUMPI PUSH1 0x40 MLOAD DUP1 PUSH1 0x20 ADD PUSH1 0x40 MSTORE DUP1 PUSH1 0x0 DUP2 MSTORE POP PUSH2 0xB95 JUMP JUMPDEST DUP1 PUSH2 0xB74 DUP5 PUSH2 0x11B8 JUMP JUMPDEST PUSH1 0x40 MLOAD PUSH1 0x20 ADD PUSH2 0xB85 SWAP3 SWAP2 SWAP1 PUSH2 0x179F JUMP JUMPDEST PUSH1 0x40 MLOAD PUSH1 0x20 DUP2 DUP4 SUB SUB DUP2 MSTORE SWAP1 PUSH1 0x40 MSTORE JUMPDEST SWAP4 SWAP3 POP POP POP JUMP JUMPDEST PUSH1 0x6 SLOAD PUSH1 0x1 PUSH1 0x1 PUSH1 0xA0 SHL SUB AND CALLER EQ PUSH2 0xBC6 JUMPI PUSH1 0x40 MLOAD PUSH3 0x461BCD PUSH1 0xE5 SHL DUP2 MSTORE PUSH1 0x4 ADD PUSH2 0x625 SWAP1 PUSH2 0x1870 JUMP JUMPDEST PUSH1 0xA SSTORE JUMP JUMPDEST PUSH1 0xA SLOAD TIMESTAMP LT ISZERO PUSH2 0xC1D JUMPI PUSH1 0x40 MLOAD PUSH3 0x461BCD PUSH1 0xE5 SHL DUP2 MSTORE PUSH1 0x20 PUSH1 0x4 DUP3 ADD DUP2 SWAP1 MSTORE PUSH1 0x24 DUP3 ADD MSTORE PUSH32 0x596F752063616E206765742031204E465420617420676976656E2074696D6521 PUSH1 0x44 DUP3 ADD MSTORE PUSH1 0x64 ADD PUSH2 0x625 JUMP JUMPDEST PUSH1 0x1 JUMPDEST PUSH2 0xC28 PUSH2 0x760 JUMP JUMPDEST DUP2 GT PUSH2 0xA3A JUMPI PUSH1 0x0 DUP2 DUP2 MSTORE PUSH1 0xB PUSH1 0x20 MSTORE PUSH1 0x40 DUP2 KECCAK256 SLOAD PUSH1 0x1 PUSH1 0x1 PUSH1 0xA0 SHL SUB AND ISZERO PUSH2 0xC95 JUMPI PUSH1 0x0 DUP3 DUP2 MSTORE PUSH1 0xB PUSH1 0x20 MSTORE PUSH1 0x40 SWAP1 KECCAK256 SLOAD PUSH2 0xC6D SWAP1 PUSH1 0x1 PUSH1 0x1 PUSH1 0xA0 SHL SUB AND DUP4 PUSH2 0x109C JUMP JUMPDEST PUSH1 0x0 DUP3 DUP2 MSTORE PUSH1 0xB PUSH1 0x20 MSTORE PUSH1 0x40 SWAP1 KECCAK256 DUP1 SLOAD PUSH1 0x1 PUSH1 0x1 PUSH1 0xA0 SHL SUB NOT AND PUSH1 0x1 PUSH1 0x1 PUSH1 0xA0 SHL SUB DUP4 AND OR SWAP1 SSTORE JUMPDEST POP DUP1 PUSH2 0xCA0 DUP2 PUSH2 0x19A0 JUMP JUMPDEST SWAP2 POP POP PUSH2 0xC20 JUMP JUMPDEST PUSH1 0x6 SLOAD PUSH1 0x1 PUSH1 0x1 PUSH1 0xA0 SHL SUB AND CALLER EQ PUSH2 0xCD2 JUMPI PUSH1 0x40 MLOAD PUSH3 0x461BCD PUSH1 0xE5 SHL DUP2 MSTORE PUSH1 0x4 ADD PUSH2 0x625 SWAP1 PUSH2 0x1870 JUMP JUMPDEST PUSH1 0x1 PUSH1 0x1 PUSH1 0xA0 SHL SUB DUP2 AND PUSH2 0xD37 JUMPI PUSH1 0x40 MLOAD PUSH3 0x461BCD PUSH1 0xE5 SHL DUP2 MSTORE PUSH1 0x20 PUSH1 0x4 DUP3 ADD MSTORE PUSH1 0x26 PUSH1 0x24 DUP3 ADD MSTORE PUSH32 0x4F776E61626C653A206E6577206F776E657220697320746865207A65726F2061 PUSH1 0x44 DUP3 ADD MSTORE PUSH6 0x646472657373 PUSH1 0xD0 SHL PUSH1 0x64 DUP3 ADD MSTORE PUSH1 0x84 ADD PUSH2 0x625 JUMP JUMPDEST PUSH2 0xA3A DUP2 PUSH2 0x104A JUMP JUMPDEST DUP1 SLOAD PUSH1 0x1 ADD SWAP1 SSTORE JUMP JUMPDEST PUSH1 0x0 DUP2 DUP2 MSTORE PUSH1 0x4 PUSH1 0x20 MSTORE PUSH1 0x40 SWAP1 KECCAK256 DUP1 SLOAD PUSH1 0x1 PUSH1 0x1 PUSH1 0xA0 SHL SUB NOT AND PUSH1 0x1 PUSH1 0x1 PUSH1 0xA0 SHL SUB DUP5 AND SWAP1 DUP2 OR SWAP1 SWAP2 SSTORE DUP2 SWAP1 PUSH2 0xD7E DUP3 PUSH2 0x818 JUMP JUMPDEST PUSH1 0x1 PUSH1 0x1 PUSH1 0xA0 SHL SUB AND PUSH32 0x8C5BE1E5EBEC7D5BD14F71427D1E84F3DD0314C0F7B2291E5B200AC8C7C3B925 PUSH1 0x40 MLOAD PUSH1 0x40 MLOAD DUP1 SWAP2 SUB SWAP1 LOG4 POP POP JUMP JUMPDEST PUSH1 0x0 DUP2 DUP2 MSTORE PUSH1 0x2 PUSH1 0x20 MSTORE PUSH1 0x40 DUP2 KECCAK256 SLOAD PUSH1 0x1 PUSH1 0x1 PUSH1 0xA0 SHL SUB AND PUSH2 0xE30 JUMPI PUSH1 0x40 MLOAD PUSH3 0x461BCD PUSH1 0xE5 SHL DUP2 MSTORE PUSH1 0x20 PUSH1 0x4 DUP3 ADD MSTORE PUSH1 0x2C PUSH1 0x24 DUP3 ADD MSTORE PUSH32 0x4552433732313A206F70657261746F7220717565727920666F72206E6F6E6578 PUSH1 0x44 DUP3 ADD MSTORE PUSH12 0x34B9BA32B73A103A37B5B2B7 PUSH1 0xA1 SHL PUSH1 0x64 DUP3 ADD MSTORE PUSH1 0x84 ADD PUSH2 0x625 JUMP JUMPDEST PUSH1 0x0 PUSH2 0xE3B DUP4 PUSH2 0x818 JUMP JUMPDEST SWAP1 POP DUP1 PUSH1 0x1 PUSH1 0x1 PUSH1 0xA0 SHL SUB AND DUP5 PUSH1 0x1 PUSH1 0x1 PUSH1 0xA0 SHL SUB AND EQ DUP1 PUSH2 0xE76 JUMPI POP DUP4 PUSH1 0x1 PUSH1 0x1 PUSH1 0xA0 SHL SUB AND PUSH2 0xE6B DUP5 PUSH2 0x5B0 JUMP JUMPDEST PUSH1 0x1 PUSH1 0x1 PUSH1 0xA0 SHL SUB AND EQ JUMPDEST DUP1 PUSH2 0xEA6 JUMPI POP PUSH1 0x1 PUSH1 0x1 PUSH1 0xA0 SHL SUB DUP1 DUP3 AND PUSH1 0x0 SWAP1 DUP2 MSTORE PUSH1 0x5 PUSH1 0x20 SWAP1 DUP2 MSTORE PUSH1 0x40 DUP1 DUP4 KECCAK256 SWAP4 DUP9 AND DUP4 MSTORE SWAP3 SWAP1 MSTORE KECCAK256 SLOAD PUSH1 0xFF AND JUMPDEST SWAP5 SWAP4 POP POP POP POP JUMP JUMPDEST DUP3 PUSH1 0x1 PUSH1 0x1 PUSH1 0xA0 SHL SUB AND PUSH2 0xEC1 DUP3 PUSH2 0x818 JUMP JUMPDEST PUSH1 0x1 PUSH1 0x1 PUSH1 0xA0 SHL SUB AND EQ PUSH2 0xF25 JUMPI PUSH1 0x40 MLOAD PUSH3 0x461BCD PUSH1 0xE5 SHL DUP2 MSTORE PUSH1 0x20 PUSH1 0x4 DUP3 ADD MSTORE PUSH1 0x25 PUSH1 0x24 DUP3 ADD MSTORE PUSH32 0x4552433732313A207472616E736665722066726F6D20696E636F727265637420 PUSH1 0x44 DUP3 ADD MSTORE PUSH5 0x37BBB732B9 PUSH1 0xD9 SHL PUSH1 0x64 DUP3 ADD MSTORE PUSH1 0x84 ADD PUSH2 0x625 JUMP JUMPDEST PUSH1 0x1 PUSH1 0x1 PUSH1 0xA0 SHL SUB DUP3 AND PUSH2 0xF87 JUMPI PUSH1 0x40 MLOAD PUSH3 0x461BCD PUSH1 0xE5 SHL DUP2 MSTORE PUSH1 0x20 PUSH1 0x4 DUP3 ADD MSTORE PUSH1 0x24 DUP1 DUP3 ADD MSTORE PUSH32 0x4552433732313A207472616E7366657220746F20746865207A65726F20616464 PUSH1 0x44 DUP3 ADD MSTORE PUSH4 0x72657373 PUSH1 0xE0 SHL PUSH1 0x64 DUP3 ADD MSTORE PUSH1 0x84 ADD PUSH2 0x625 JUMP JUMPDEST PUSH2 0xF92 PUSH1 0x0 DUP3 PUSH2 0xD49 JUMP JUMPDEST PUSH1 0x1 PUSH1 0x1 PUSH1 0xA0 SHL SUB DUP4 AND PUSH1 0x0 SWAP1 DUP2 MSTORE PUSH1 0x3 PUSH1 0x20 MSTORE PUSH1 0x40 DUP2 KECCAK256 DUP1 SLOAD PUSH1 0x1 SWAP3 SWAP1 PUSH2 0xFBB SWAP1 DUP5 SWAP1 PUSH2 0x1922 JUMP JUMPDEST SWAP1 SWAP2 SSTORE POP POP PUSH1 0x1 PUSH1 0x1 PUSH1 0xA0 SHL SUB DUP3 AND PUSH1 0x0 SWAP1 DUP2 MSTORE PUSH1 0x3 PUSH1 0x20 MSTORE PUSH1 0x40 DUP2 KECCAK256 DUP1 SLOAD PUSH1 0x1 SWAP3 SWAP1 PUSH2 0xFE9 SWAP1 DUP5 SWAP1 PUSH2 0x18F6 JUMP JUMPDEST SWAP1 SWAP2 SSTORE POP POP PUSH1 0x0 DUP2 DUP2 MSTORE PUSH1 0x2 PUSH1 0x20 MSTORE PUSH1 0x40 DUP1 DUP3 KECCAK256 DUP1 SLOAD PUSH1 0x1 PUSH1 0x1 PUSH1 0xA0 SHL SUB NOT AND PUSH1 0x1 PUSH1 0x1 PUSH1 0xA0 SHL SUB DUP7 DUP2 AND SWAP2 DUP3 OR SWAP1 SWAP3 SSTORE SWAP2 MLOAD DUP5 SWAP4 SWAP2 DUP8 AND SWAP2 PUSH32 0xDDF252AD1BE2C89B69C2B068FC378DAA952BA7F163C4A11628F55A4DF523B3EF SWAP2 LOG4 POP POP POP JUMP JUMPDEST PUSH1 0x6 DUP1 SLOAD PUSH1 0x1 PUSH1 0x1 PUSH1 0xA0 SHL SUB DUP4 DUP2 AND PUSH1 0x1 PUSH1 0x1 PUSH1 0xA0 SHL SUB NOT DUP4 AND DUP2 OR SWAP1 SWAP4 SSTORE PUSH1 0x40 MLOAD SWAP2 AND SWAP2 SWAP1 DUP3 SWAP1 PUSH32 0x8BE0079C531659141344CD1FD0A4F28419497F9722A3DAAFE3B4186F6B6457E0 SWAP1 PUSH1 0x0 SWAP1 LOG3 POP POP JUMP JUMPDEST PUSH2 0xA78 DUP3 DUP3 PUSH1 0x40 MLOAD DUP1 PUSH1 0x20 ADD PUSH1 0x40 MSTORE DUP1 PUSH1 0x0 DUP2 MSTORE POP PUSH2 0x12B6 JUMP JUMPDEST DUP2 PUSH1 0x1 PUSH1 0x1 PUSH1 0xA0 SHL SUB AND DUP4 PUSH1 0x1 PUSH1 0x1 PUSH1 0xA0 SHL SUB AND EQ ISZERO PUSH2 0x1118 JUMPI PUSH1 0x40 MLOAD PUSH3 0x461BCD PUSH1 0xE5 SHL DUP2 MSTORE PUSH1 0x20 PUSH1 0x4 DUP3 ADD MSTORE PUSH1 0x19 PUSH1 0x24 DUP3 ADD MSTORE PUSH32 0x4552433732313A20617070726F766520746F2063616C6C657200000000000000 PUSH1 0x44 DUP3 ADD MSTORE PUSH1 0x64 ADD PUSH2 0x625 JUMP JUMPDEST PUSH1 0x1 PUSH1 0x1 PUSH1 0xA0 SHL SUB DUP4 DUP2 AND PUSH1 0x0 DUP2 DUP2 MSTORE PUSH1 0x5 PUSH1 0x20 SWAP1 DUP2 MSTORE PUSH1 0x40 DUP1 DUP4 KECCAK256 SWAP5 DUP8 AND DUP1 DUP5 MSTORE SWAP5 DUP3 MSTORE SWAP2 DUP3 SWAP1 KECCAK256 DUP1 SLOAD PUSH1 0xFF NOT AND DUP7 ISZERO ISZERO SWAP1 DUP2 OR SWAP1 SWAP2 SSTORE SWAP2 MLOAD SWAP2 DUP3 MSTORE PUSH32 0x17307EAB39AB6107E8899845AD3D59BD9653F200F220920489CA2B5937696C31 SWAP2 ADD PUSH1 0x40 MLOAD DUP1 SWAP2 SUB SWAP1 LOG3 POP POP POP JUMP JUMPDEST PUSH2 0x1190 DUP5 DUP5 DUP5 PUSH2 0xEAE JUMP JUMPDEST PUSH2 0x119C DUP5 DUP5 DUP5 DUP5 PUSH2 0x12E9 JUMP JUMPDEST PUSH2 0xAAE JUMPI PUSH1 0x40 MLOAD PUSH3 0x461BCD PUSH1 0xE5 SHL DUP2 MSTORE PUSH1 0x4 ADD PUSH2 0x625 SWAP1 PUSH2 0x181E JUMP JUMPDEST PUSH1 0x60 DUP2 PUSH2 0x11DC JUMPI POP POP PUSH1 0x40 DUP1 MLOAD DUP1 DUP3 ADD SWAP1 SWAP2 MSTORE PUSH1 0x1 DUP2 MSTORE PUSH1 0x3 PUSH1 0xFC SHL PUSH1 0x20 DUP3 ADD MSTORE SWAP1 JUMP JUMPDEST DUP2 PUSH1 0x0 JUMPDEST DUP2 ISZERO PUSH2 0x1206 JUMPI DUP1 PUSH2 0x11F0 DUP2 PUSH2 0x19A0 JUMP JUMPDEST SWAP2 POP PUSH2 0x11FF SWAP1 POP PUSH1 0xA DUP4 PUSH2 0x190E JUMP JUMPDEST SWAP2 POP PUSH2 0x11E0 JUMP JUMPDEST PUSH1 0x0 DUP2 PUSH8 0xFFFFFFFFFFFFFFFF DUP2 GT ISZERO PUSH2 0x1221 JUMPI PUSH2 0x1221 PUSH2 0x1A11 JUMP JUMPDEST PUSH1 0x40 MLOAD SWAP1 DUP1 DUP3 MSTORE DUP1 PUSH1 0x1F ADD PUSH1 0x1F NOT AND PUSH1 0x20 ADD DUP3 ADD PUSH1 0x40 MSTORE DUP1 ISZERO PUSH2 0x124B JUMPI PUSH1 0x20 DUP3 ADD DUP2 DUP1 CALLDATASIZE DUP4 CALLDATACOPY ADD SWAP1 POP JUMPDEST POP SWAP1 POP JUMPDEST DUP5 ISZERO PUSH2 0xEA6 JUMPI PUSH2 0x1260 PUSH1 0x1 DUP4 PUSH2 0x1922 JUMP JUMPDEST SWAP2 POP PUSH2 0x126D PUSH1 0xA DUP7 PUSH2 0x19BB JUMP JUMPDEST PUSH2 0x1278 SWAP1 PUSH1 0x30 PUSH2 0x18F6 JUMP JUMPDEST PUSH1 0xF8 SHL DUP2 DUP4 DUP2 MLOAD DUP2 LT PUSH2 0x128D JUMPI PUSH2 0x128D PUSH2 0x19FB JUMP JUMPDEST PUSH1 0x20 ADD ADD SWAP1 PUSH1 0x1 PUSH1 0x1 PUSH1 0xF8 SHL SUB NOT AND SWAP1 DUP2 PUSH1 0x0 BYTE SWAP1 MSTORE8 POP PUSH2 0x12AF PUSH1 0xA DUP7 PUSH2 0x190E JUMP JUMPDEST SWAP5 POP PUSH2 0x124F JUMP JUMPDEST PUSH2 0x12C0 DUP4 DUP4 PUSH2 0x13F6 JUMP JUMPDEST PUSH2 0x12CD PUSH1 0x0 DUP5 DUP5 DUP5 PUSH2 0x12E9 JUMP JUMPDEST PUSH2 0x75B JUMPI PUSH1 0x40 MLOAD PUSH3 0x461BCD PUSH1 0xE5 SHL DUP2 MSTORE PUSH1 0x4 ADD PUSH2 0x625 SWAP1 PUSH2 0x181E JUMP JUMPDEST PUSH1 0x0 PUSH1 0x1 PUSH1 0x1 PUSH1 0xA0 SHL SUB DUP5 AND EXTCODESIZE ISZERO PUSH2 0x13EB JUMPI PUSH1 0x40 MLOAD PUSH4 0xA85BD01 PUSH1 0xE1 SHL DUP2 MSTORE PUSH1 0x1 PUSH1 0x1 PUSH1 0xA0 SHL SUB DUP6 AND SWAP1 PUSH4 0x150B7A02 SWAP1 PUSH2 0x132D SWAP1 CALLER SWAP1 DUP10 SWAP1 DUP9 SWAP1 DUP9 SWAP1 PUSH1 0x4 ADD PUSH2 0x17CE JUMP JUMPDEST PUSH1 0x20 PUSH1 0x40 MLOAD DUP1 DUP4 SUB DUP2 PUSH1 0x0 DUP8 DUP1 EXTCODESIZE ISZERO DUP1 ISZERO PUSH2 0x1347 JUMPI PUSH1 0x0 DUP1 REVERT JUMPDEST POP GAS CALL SWAP3 POP POP POP DUP1 ISZERO PUSH2 0x1377 JUMPI POP PUSH1 0x40 DUP1 MLOAD PUSH1 0x1F RETURNDATASIZE SWAP1 DUP2 ADD PUSH1 0x1F NOT AND DUP3 ADD SWAP1 SWAP3 MSTORE PUSH2 0x1374 SWAP2 DUP2 ADD SWAP1 PUSH2 0x173D JUMP JUMPDEST PUSH1 0x1 JUMPDEST PUSH2 0x13D1 JUMPI RETURNDATASIZE DUP1 DUP1 ISZERO PUSH2 0x13A5 JUMPI PUSH1 0x40 MLOAD SWAP2 POP PUSH1 0x1F NOT PUSH1 0x3F RETURNDATASIZE ADD AND DUP3 ADD PUSH1 0x40 MSTORE RETURNDATASIZE DUP3 MSTORE RETURNDATASIZE PUSH1 0x0 PUSH1 0x20 DUP5 ADD RETURNDATACOPY PUSH2 0x13AA JUMP JUMPDEST PUSH1 0x60 SWAP2 POP JUMPDEST POP DUP1 MLOAD PUSH2 0x13C9 JUMPI PUSH1 0x40 MLOAD PUSH3 0x461BCD PUSH1 0xE5 SHL DUP2 MSTORE PUSH1 0x4 ADD PUSH2 0x625 SWAP1 PUSH2 0x181E JUMP JUMPDEST DUP1 MLOAD DUP2 PUSH1 0x20 ADD REVERT JUMPDEST PUSH1 0x1 PUSH1 0x1 PUSH1 0xE0 SHL SUB NOT AND PUSH4 0xA85BD01 PUSH1 0xE1 SHL EQ SWAP1 POP PUSH2 0xEA6 JUMP JUMPDEST POP PUSH1 0x1 SWAP5 SWAP4 POP POP POP POP JUMP JUMPDEST PUSH1 0x1 PUSH1 0x1 PUSH1 0xA0 SHL SUB DUP3 AND PUSH2 0x144C JUMPI PUSH1 0x40 MLOAD PUSH3 0x461BCD PUSH1 0xE5 SHL DUP2 MSTORE PUSH1 0x20 PUSH1 0x4 DUP3 ADD DUP2 SWAP1 MSTORE PUSH1 0x24 DUP3 ADD MSTORE PUSH32 0x4552433732313A206D696E7420746F20746865207A65726F2061646472657373 PUSH1 0x44 DUP3 ADD MSTORE PUSH1 0x64 ADD PUSH2 0x625 JUMP JUMPDEST PUSH1 0x0 DUP2 DUP2 MSTORE PUSH1 0x2 PUSH1 0x20 MSTORE PUSH1 0x40 SWAP1 KECCAK256 SLOAD PUSH1 0x1 PUSH1 0x1 PUSH1 0xA0 SHL SUB AND ISZERO PUSH2 0x14B1 JUMPI PUSH1 0x40 MLOAD PUSH3 0x461BCD PUSH1 0xE5 SHL DUP2 MSTORE PUSH1 0x20 PUSH1 0x4 DUP3 ADD MSTORE PUSH1 0x1C PUSH1 0x24 DUP3 ADD MSTORE PUSH32 0x4552433732313A20746F6B656E20616C7265616479206D696E74656400000000 PUSH1 0x44 DUP3 ADD MSTORE PUSH1 0x64 ADD PUSH2 0x625 JUMP JUMPDEST PUSH1 0x1 PUSH1 0x1 PUSH1 0xA0 SHL SUB DUP3 AND PUSH1 0x0 SWAP1 DUP2 MSTORE PUSH1 0x3 PUSH1 0x20 MSTORE PUSH1 0x40 DUP2 KECCAK256 DUP1 SLOAD PUSH1 0x1 SWAP3 SWAP1 PUSH2 0x14DA SWAP1 DUP5 SWAP1 PUSH2 0x18F6 JUMP JUMPDEST SWAP1 SWAP2 SSTORE POP POP PUSH1 0x0 DUP2 DUP2 MSTORE PUSH1 0x2 PUSH1 0x20 MSTORE PUSH1 0x40 DUP1 DUP3 KECCAK256 DUP1 SLOAD PUSH1 0x1 PUSH1 0x1 PUSH1 0xA0 SHL SUB NOT AND PUSH1 0x1 PUSH1 0x1 PUSH1 0xA0 SHL SUB DUP7 AND SWAP1 DUP2 OR SWAP1 SWAP2 SSTORE SWAP1 MLOAD DUP4 SWAP3 SWAP1 PUSH32 0xDDF252AD1BE2C89B69C2B068FC378DAA952BA7F163C4A11628F55A4DF523B3EF SWAP1 DUP3 SWAP1 LOG4 POP POP JUMP JUMPDEST DUP1 CALLDATALOAD PUSH1 0x1 PUSH1 0x1 PUSH1 0xA0 SHL SUB DUP2 AND DUP2 EQ PUSH2 0x154F JUMPI PUSH1 0x0 DUP1 REVERT JUMPDEST SWAP2 SWAP1 POP JUMP JUMPDEST PUSH1 0x0 PUSH1 0x20 DUP3 DUP5 SUB SLT ISZERO PUSH2 0x1566 JUMPI PUSH1 0x0 DUP1 REVERT JUMPDEST PUSH2 0xB95 DUP3 PUSH2 0x1538 JUMP JUMPDEST PUSH1 0x0 DUP1 PUSH1 0x40 DUP4 DUP6 SUB SLT ISZERO PUSH2 0x1582 JUMPI PUSH1 0x0 DUP1 REVERT JUMPDEST PUSH2 0x158B DUP4 PUSH2 0x1538 JUMP JUMPDEST SWAP2 POP PUSH2 0x1599 PUSH1 0x20 DUP5 ADD PUSH2 0x1538 JUMP JUMPDEST SWAP1 POP SWAP3 POP SWAP3 SWAP1 POP JUMP JUMPDEST PUSH1 0x0 DUP1 PUSH1 0x0 PUSH1 0x60 DUP5 DUP7 SUB SLT ISZERO PUSH2 0x15B7 JUMPI PUSH1 0x0 DUP1 REVERT JUMPDEST PUSH2 0x15C0 DUP5 PUSH2 0x1538 JUMP JUMPDEST SWAP3 POP PUSH2 0x15CE PUSH1 0x20 DUP6 ADD PUSH2 0x1538 JUMP JUMPDEST SWAP2 POP PUSH1 0x40 DUP5 ADD CALLDATALOAD SWAP1 POP SWAP3 POP SWAP3 POP SWAP3 JUMP JUMPDEST PUSH1 0x0 DUP1 PUSH1 0x0 DUP1 PUSH1 0x80 DUP6 DUP8 SUB SLT ISZERO PUSH2 0x15F4 JUMPI PUSH1 0x0 DUP1 REVERT JUMPDEST PUSH2 0x15FD DUP6 PUSH2 0x1538 JUMP JUMPDEST SWAP4 POP PUSH2 0x160B PUSH1 0x20 DUP7 ADD PUSH2 0x1538 JUMP JUMPDEST SWAP3 POP PUSH1 0x40 DUP6 ADD CALLDATALOAD SWAP2 POP PUSH1 0x60 DUP6 ADD CALLDATALOAD PUSH8 0xFFFFFFFFFFFFFFFF DUP1 DUP3 GT ISZERO PUSH2 0x162F JUMPI PUSH1 0x0 DUP1 REVERT JUMPDEST DUP2 DUP8 ADD SWAP2 POP DUP8 PUSH1 0x1F DUP4 ADD SLT PUSH2 0x1643 JUMPI PUSH1 0x0 DUP1 REVERT JUMPDEST DUP2 CALLDATALOAD DUP2 DUP2 GT ISZERO PUSH2 0x1655 JUMPI PUSH2 0x1655 PUSH2 0x1A11 JUMP JUMPDEST PUSH1 0x40 MLOAD PUSH1 0x1F DUP3 ADD PUSH1 0x1F NOT SWAP1 DUP2 AND PUSH1 0x3F ADD AND DUP2 ADD SWAP1 DUP4 DUP3 GT DUP2 DUP4 LT OR ISZERO PUSH2 0x167D JUMPI PUSH2 0x167D PUSH2 0x1A11 JUMP JUMPDEST DUP2 PUSH1 0x40 MSTORE DUP3 DUP2 MSTORE DUP11 PUSH1 0x20 DUP5 DUP8 ADD ADD GT ISZERO PUSH2 0x1696 JUMPI PUSH1 0x0 DUP1 REVERT JUMPDEST DUP3 PUSH1 0x20 DUP7 ADD PUSH1 0x20 DUP4 ADD CALLDATACOPY PUSH1 0x0 PUSH1 0x20 DUP5 DUP4 ADD ADD MSTORE DUP1 SWAP6 POP POP POP POP POP POP SWAP3 SWAP6 SWAP2 SWAP5 POP SWAP3 POP JUMP JUMPDEST PUSH1 0x0 DUP1 PUSH1 0x40 DUP4 DUP6 SUB SLT ISZERO PUSH2 0x16CD JUMPI PUSH1 0x0 DUP1 REVERT JUMPDEST PUSH2 0x16D6 DUP4 PUSH2 0x1538 JUMP JUMPDEST SWAP2 POP PUSH1 0x20 DUP4 ADD CALLDATALOAD DUP1 ISZERO ISZERO DUP2 EQ PUSH2 0x16EB JUMPI PUSH1 0x0 DUP1 REVERT JUMPDEST DUP1 SWAP2 POP POP SWAP3 POP SWAP3 SWAP1 POP JUMP JUMPDEST PUSH1 0x0 DUP1 PUSH1 0x40 DUP4 DUP6 SUB SLT ISZERO PUSH2 0x1709 JUMPI PUSH1 0x0 DUP1 REVERT JUMPDEST PUSH2 0x1712 DUP4 PUSH2 0x1538 JUMP JUMPDEST SWAP5 PUSH1 0x20 SWAP4 SWAP1 SWAP4 ADD CALLDATALOAD SWAP4 POP POP POP JUMP JUMPDEST PUSH1 0x0 PUSH1 0x20 DUP3 DUP5 SUB SLT ISZERO PUSH2 0x1732 JUMPI PUSH1 0x0 DUP1 REVERT JUMPDEST DUP2 CALLDATALOAD PUSH2 0xB95 DUP2 PUSH2 0x1A27 JUMP JUMPDEST PUSH1 0x0 PUSH1 0x20 DUP3 DUP5 SUB SLT ISZERO PUSH2 0x174F JUMPI PUSH1 0x0 DUP1 REVERT JUMPDEST DUP2 MLOAD PUSH2 0xB95 DUP2 PUSH2 0x1A27 JUMP JUMPDEST PUSH1 0x0 PUSH1 0x20 DUP3 DUP5 SUB SLT ISZERO PUSH2 0x176C JUMPI PUSH1 0x0 DUP1 REVERT JUMPDEST POP CALLDATALOAD SWAP2 SWAP1 POP JUMP JUMPDEST PUSH1 0x0 DUP2 MLOAD DUP1 DUP5 MSTORE PUSH2 0x178B DUP2 PUSH1 0x20 DUP7 ADD PUSH1 0x20 DUP7 ADD PUSH2 0x1939 JUMP JUMPDEST PUSH1 0x1F ADD PUSH1 0x1F NOT AND SWAP3 SWAP1 SWAP3 ADD PUSH1 0x20 ADD SWAP3 SWAP2 POP POP JUMP JUMPDEST PUSH1 0x0 DUP4 MLOAD PUSH2 0x17B1 DUP2 DUP5 PUSH1 0x20 DUP9 ADD PUSH2 0x1939 JUMP JUMPDEST DUP4 MLOAD SWAP1 DUP4 ADD SWAP1 PUSH2 0x17C5 DUP2 DUP4 PUSH1 0x20 DUP9 ADD PUSH2 0x1939 JUMP JUMPDEST ADD SWAP5 SWAP4 POP POP POP POP JUMP JUMPDEST PUSH1 0x1 PUSH1 0x1 PUSH1 0xA0 SHL SUB DUP6 DUP2 AND DUP3 MSTORE DUP5 AND PUSH1 0x20 DUP3 ADD MSTORE PUSH1 0x40 DUP2 ADD DUP4 SWAP1 MSTORE PUSH1 0x80 PUSH1 0x60 DUP3 ADD DUP2 SWAP1 MSTORE PUSH1 0x0 SWAP1 PUSH2 0x1801 SWAP1 DUP4 ADD DUP5 PUSH2 0x1773 JUMP JUMPDEST SWAP7 SWAP6 POP POP POP POP POP POP JUMP JUMPDEST PUSH1 0x20 DUP2 MSTORE PUSH1 0x0 PUSH2 0xB95 PUSH1 0x20 DUP4 ADD DUP5 PUSH2 0x1773 JUMP JUMPDEST PUSH1 0x20 DUP1 DUP3 MSTORE PUSH1 0x32 SWAP1 DUP3 ADD MSTORE PUSH32 0x4552433732313A207472616E7366657220746F206E6F6E204552433732315265 PUSH1 0x40 DUP3 ADD MSTORE PUSH18 0x31B2B4BB32B91034B6B83632B6B2B73A32B9 PUSH1 0x71 SHL PUSH1 0x60 DUP3 ADD MSTORE PUSH1 0x80 ADD SWAP1 JUMP JUMPDEST PUSH1 0x20 DUP1 DUP3 MSTORE DUP2 DUP2 ADD MSTORE PUSH32 0x4F776E61626C653A2063616C6C6572206973206E6F7420746865206F776E6572 PUSH1 0x40 DUP3 ADD MSTORE PUSH1 0x60 ADD SWAP1 JUMP JUMPDEST PUSH1 0x20 DUP1 DUP3 MSTORE PUSH1 0x31 SWAP1 DUP3 ADD MSTORE PUSH32 0x4552433732313A207472616E736665722063616C6C6572206973206E6F74206F PUSH1 0x40 DUP3 ADD MSTORE PUSH17 0x1DDB995C881B9BDC88185C1C1C9BDD9959 PUSH1 0x7A SHL PUSH1 0x60 DUP3 ADD MSTORE PUSH1 0x80 ADD SWAP1 JUMP JUMPDEST PUSH1 0x0 DUP3 NOT DUP3 GT ISZERO PUSH2 0x1909 JUMPI PUSH2 0x1909 PUSH2 0x19CF JUMP JUMPDEST POP ADD SWAP1 JUMP JUMPDEST PUSH1 0x0 DUP3 PUSH2 0x191D JUMPI PUSH2 0x191D PUSH2 0x19E5 JUMP JUMPDEST POP DIV SWAP1 JUMP JUMPDEST PUSH1 0x0 DUP3 DUP3 LT ISZERO PUSH2 0x1934 JUMPI PUSH2 0x1934 PUSH2 0x19CF JUMP JUMPDEST POP SUB SWAP1 JUMP JUMPDEST PUSH1 0x0 JUMPDEST DUP4 DUP2 LT ISZERO PUSH2 0x1954 JUMPI DUP2 DUP2 ADD MLOAD DUP4 DUP3 ADD MSTORE PUSH1 0x20 ADD PUSH2 0x193C JUMP JUMPDEST DUP4 DUP2 GT ISZERO PUSH2 0xAAE JUMPI POP POP PUSH1 0x0 SWAP2 ADD MSTORE JUMP JUMPDEST PUSH1 0x1 DUP2 DUP2 SHR SWAP1 DUP3 AND DUP1 PUSH2 0x1979 JUMPI PUSH1 0x7F DUP3 AND SWAP2 POP JUMPDEST PUSH1 0x20 DUP3 LT DUP2 EQ ISZERO PUSH2 0x199A JUMPI PUSH4 0x4E487B71 PUSH1 0xE0 SHL PUSH1 0x0 MSTORE PUSH1 0x22 PUSH1 0x4 MSTORE PUSH1 0x24 PUSH1 0x0 REVERT JUMPDEST POP SWAP2 SWAP1 POP JUMP JUMPDEST PUSH1 0x0 PUSH1 0x0 NOT DUP3 EQ ISZERO PUSH2 0x19B4 JUMPI PUSH2 0x19B4 PUSH2 0x19CF JUMP JUMPDEST POP PUSH1 0x1 ADD SWAP1 JUMP JUMPDEST PUSH1 0x0 DUP3 PUSH2 0x19CA JUMPI PUSH2 0x19CA PUSH2 0x19E5 JUMP JUMPDEST POP MOD SWAP1 JUMP JUMPDEST PUSH4 0x4E487B71 PUSH1 0xE0 SHL PUSH1 0x0 MSTORE PUSH1 0x11 PUSH1 0x4 MSTORE PUSH1 0x24 PUSH1 0x0 REVERT JUMPDEST PUSH4 0x4E487B71 PUSH1 0xE0 SHL PUSH1 0x0 MSTORE PUSH1 0x12 PUSH1 0x4 MSTORE PUSH1 0x24 PUSH1 0x0 REVERT JUMPDEST PUSH4 0x4E487B71 PUSH1 0xE0 SHL PUSH1 0x0 MSTORE PUSH1 0x32 PUSH1 0x4 MSTORE PUSH1 0x24 PUSH1 0x0 REVERT JUMPDEST PUSH4 0x4E487B71 PUSH1 0xE0 SHL PUSH1 0x0 MSTORE PUSH1 0x41 PUSH1 0x4 MSTORE PUSH1 0x24 PUSH1 0x0 REVERT JUMPDEST PUSH1 0x1 PUSH1 0x1 PUSH1 0xE0 SHL SUB NOT DUP2 AND DUP2 EQ PUSH2 0xA3A JUMPI PUSH1 0x0 DUP1 REVERT INVALID LOG2 PUSH5 0x6970667358 0x22 SLT KECCAK256 0xE6 0xC4 0xE2 EQ 0xAC 0x28 0xAA 0xB1 ORIGIN 0xED CALLDATACOPY SWAP5 0xC7 0xEF 0xDB PUSH30 0x580753664A326CE565B71CE812D1D56064736F6C63430008070033000000 "
        },
        "methodIdentifiers": {
          "_middleOwners(uint256)": "c202df68",
          "_nextTokenId()": "4a60f620",
          "approve(address,uint256)": "095ea7b3",
          "balanceOf(address)": "70a08231",
          "getApproved(uint256)": "081812fc",
          "isApprovedForAll(address,address)": "e985e9c5",
          "mintAtTime()": "df96d3a4",
          "mintTime()": "86478122",
          "mintTo()": "92123470",
          "name()": "06fdde03",
          "owner()": "8da5cb5b",
          "ownerOf(uint256)": "6352211e",
          "price()": "a035b1fe",
          "qtyPerWallet()": "3aa5af23",
          "renounceOwnership()": "715018a6",
          "safeTransferFrom(address,address,uint256)": "42842e0e",
          "safeTransferFrom(address,address,uint256,bytes)": "b88d4fde",
          "setApprovalForAll(address,bool)": "a22cb465",
          "setMintTime(uint256)": "dda52d53",
          "supportsInterface(bytes4)": "01ffc9a7",
          "symbol()": "95d89b41",
          "tokenURI(uint256)": "c87b56dd",
          "totalSupply()": "18160ddd",
          "transferFrom(address,address,uint256)": "23b872dd",
          "transferOwnership(address)": "f2fde38b",
          "withdraw()": "3ccfd60b"
        }
      },
      "storageLayout": {
        "storage": [
          {
            "astId": 130,
            "contract": "contracts/firstNFT.sol:FirstNFT",
            "label": "_name",
            "offset": 0,
            "slot": "0",
            "type": "t_string_storage"
          },
          {
            "astId": 132,
            "contract": "contracts/firstNFT.sol:FirstNFT",
            "label": "_symbol",
            "offset": 0,
            "slot": "1",
            "type": "t_string_storage"
          },
          {
            "astId": 136,
            "contract": "contracts/firstNFT.sol:FirstNFT",
            "label": "_owners",
            "offset": 0,
            "slot": "2",
            "type": "t_mapping(t_uint256,t_address)"
          },
          {
            "astId": 140,
            "contract": "contracts/firstNFT.sol:FirstNFT",
            "label": "_balances",
            "offset": 0,
            "slot": "3",
            "type": "t_mapping(t_address,t_uint256)"
          },
          {
            "astId": 144,
            "contract": "contracts/firstNFT.sol:FirstNFT",
            "label": "_tokenApprovals",
            "offset": 0,
            "slot": "4",
            "type": "t_mapping(t_uint256,t_address)"
          },
          {
            "astId": 150,
            "contract": "contracts/firstNFT.sol:FirstNFT",
            "label": "_operatorApprovals",
            "offset": 0,
            "slot": "5",
            "type": "t_mapping(t_address,t_mapping(t_address,t_bool))"
          },
          {
            "astId": 7,
            "contract": "contracts/firstNFT.sol:FirstNFT",
            "label": "_owner",
            "offset": 0,
            "slot": "6",
            "type": "t_address"
          },
          {
            "astId": 1778,
            "contract": "contracts/firstNFT.sol:FirstNFT",
            "label": "_nextTokenId",
            "offset": 0,
            "slot": "7",
            "type": "t_struct(Counter)1454_storage"
          },
          {
            "astId": 1781,
            "contract": "contracts/firstNFT.sol:FirstNFT",
            "label": "price",
            "offset": 0,
            "slot": "8",
            "type": "t_uint256"
          },
          {
            "astId": 1784,
            "contract": "contracts/firstNFT.sol:FirstNFT",
            "label": "qtyPerWallet",
            "offset": 0,
            "slot": "9",
            "type": "t_uint256"
          },
          {
            "astId": 1787,
            "contract": "contracts/firstNFT.sol:FirstNFT",
            "label": "mintTime",
            "offset": 0,
            "slot": "10",
            "type": "t_uint256"
          },
          {
            "astId": 1791,
            "contract": "contracts/firstNFT.sol:FirstNFT",
            "label": "_middleOwners",
            "offset": 0,
            "slot": "11",
            "type": "t_mapping(t_uint256,t_address)"
          }
        ],
        "types": {
          "t_address": {
            "encoding": "inplace",
            "label": "address",
            "numberOfBytes": "20"
          },
          "t_bool": {
            "encoding": "inplace",
            "label": "bool",
            "numberOfBytes": "1"
          },
          "t_mapping(t_address,t_bool)": {
            "encoding": "mapping",
            "key": "t_address",
            "label": "mapping(address => bool)",
            "numberOfBytes": "32",
            "value": "t_bool"
          },
          "t_mapping(t_address,t_mapping(t_address,t_bool))": {
            "encoding": "mapping",
            "key": "t_address",
            "label": "mapping(address => mapping(address => bool))",
            "numberOfBytes": "32",
            "value": "t_mapping(t_address,t_bool)"
          },
          "t_mapping(t_address,t_uint256)": {
            "encoding": "mapping",
            "key": "t_address",
            "label": "mapping(address => uint256)",
            "numberOfBytes": "32",
            "value": "t_uint256"
          },
          "t_mapping(t_uint256,t_address)": {
            "encoding": "mapping",
            "key": "t_uint256",
            "label": "mapping(uint256 => address)",
            "numberOfBytes": "32",
            "value": "t_address"
          },
          "t_string_storage": {
            "encoding": "bytes",
            "label": "string",
            "numberOfBytes": "32"
          },
          "t_struct(Counter)1454_storage": {
            "encoding": "inplace",
            "label": "struct Counters.Counter",
            "members": [
              {
                "astId": 1453,
                "contract": "contracts/firstNFT.sol:FirstNFT",
                "label": "_value",
                "offset": 0,
                "slot": "0",
                "type": "t_uint256"
              }
            ],
            "numberOfBytes": "32"
          },
          "t_uint256": {
            "encoding": "inplace",
            "label": "uint256",
            "numberOfBytes": "32"
          }
        }
      }
    }
  }
}