{
  "_format": "hh-sol-artifact-1",
  "contractName": "FirstNFTCommon",
  "sourceName": "contracts/firstNFT_common.sol",
  "abi": [
    {
      "inputs": [],
      "stateMutability": "nonpayable",
      "type": "constructor"
    },
    {
      "anonymous": false,
      "inputs": [
        {
          "indexed": true,
          "internalType": "address",
          "name": "owner",
          "type": "address"
        },
        {
          "indexed": true,
          "internalType": "address",
          "name": "approved",
          "type": "address"
        },
        {
          "indexed": true,
          "internalType": "uint256",
          "name": "tokenId",
          "type": "uint256"
        }
      ],
      "name": "Approval",
      "type": "event"
    },
    {
      "anonymous": false,
      "inputs": [
        {
          "indexed": true,
          "internalType": "address",
          "name": "owner",
          "type": "address"
        },
        {
          "indexed": true,
          "internalType": "address",
          "name": "operator",
          "type": "address"
        },
        {
          "indexed": false,
          "internalType": "bool",
          "name": "approved",
          "type": "bool"
        }
      ],
      "name": "ApprovalForAll",
      "type": "event"
    },
    {
      "anonymous": false,
      "inputs": [
        {
          "indexed": true,
          "internalType": "address",
          "name": "previousOwner",
          "type": "address"
        },
        {
          "indexed": true,
          "internalType": "address",
          "name": "newOwner",
          "type": "address"
        }
      ],
      "name": "OwnershipTransferred",
      "type": "event"
    },
    {
      "anonymous": false,
      "inputs": [
        {
          "indexed": true,
          "internalType": "address",
          "name": "from",
          "type": "address"
        },
        {
          "indexed": true,
          "internalType": "address",
          "name": "to",
          "type": "address"
        },
        {
          "indexed": true,
          "internalType": "uint256",
          "name": "tokenId",
          "type": "uint256"
        }
      ],
      "name": "Transfer",
      "type": "event"
    },
    {
      "inputs": [],
      "name": "_nextTokenId",
      "outputs": [
        {
          "internalType": "uint256",
          "name": "_value",
          "type": "uint256"
        }
      ],
      "stateMutability": "view",
      "type": "function"
    },
    {
      "inputs": [
        {
          "internalType": "address",
          "name": "to",
          "type": "address"
        },
        {
          "internalType": "uint256",
          "name": "tokenId",
          "type": "uint256"
        }
      ],
      "name": "approve",
      "outputs": [],
      "stateMutability": "nonpayable",
      "type": "function"
    },
    {
      "inputs": [
        {
          "internalType": "address",
          "name": "owner",
          "type": "address"
        }
      ],
      "name": "balanceOf",
      "outputs": [
        {
          "internalType": "uint256",
          "name": "",
          "type": "uint256"
        }
      ],
      "stateMutability": "view",
      "type": "function"
    },
    {
      "inputs": [
        {
          "internalType": "uint256",
          "name": "tokenId",
          "type": "uint256"
        }
      ],
      "name": "getApproved",
      "outputs": [
        {
          "internalType": "address",
          "name": "",
          "type": "address"
        }
      ],
      "stateMutability": "view",
      "type": "function"
    },
    {
      "inputs": [
        {
          "internalType": "address",
          "name": "owner",
          "type": "address"
        },
        {
          "internalType": "address",
          "name": "operator",
          "type": "address"
        }
      ],
      "name": "isApprovedForAll",
      "outputs": [
        {
          "internalType": "bool",
          "name": "",
          "type": "bool"
        }
      ],
      "stateMutability": "view",
      "type": "function"
    },
    {
      "inputs": [],
      "name": "mintTo",
      "outputs": [],
      "stateMutability": "payable",
      "type": "function"
    },
    {
      "inputs": [],
      "name": "name",
      "outputs": [
        {
          "internalType": "string",
          "name": "",
          "type": "string"
        }
      ],
      "stateMutability": "view",
      "type": "function"
    },
    {
      "inputs": [],
      "name": "owner",
      "outputs": [
        {
          "internalType": "address",
          "name": "",
          "type": "address"
        }
      ],
      "stateMutability": "view",
      "type": "function"
    },
    {
      "inputs": [
        {
          "internalType": "uint256",
          "name": "tokenId",
          "type": "uint256"
        }
      ],
      "name": "ownerOf",
      "outputs": [
        {
          "internalType": "address",
          "name": "",
          "type": "address"
        }
      ],
      "stateMutability": "view",
      "type": "function"
    },
    {
      "inputs": [],
      "name": "price",
      "outputs": [
        {
          "internalType": "uint256",
          "name": "",
          "type": "uint256"
        }
      ],
      "stateMutability": "view",
      "type": "function"
    },
    {
      "inputs": [],
      "name": "qtyPerWallet",
      "outputs": [
        {
          "internalType": "uint256",
          "name": "",
          "type": "uint256"
        }
      ],
      "stateMutability": "view",
      "type": "function"
    },
    {
      "inputs": [],
      "name": "renounceOwnership",
      "outputs": [],
      "stateMutability": "nonpayable",
      "type": "function"
    },
    {
      "inputs": [
        {
          "internalType": "address",
          "name": "from",
          "type": "address"
        },
        {
          "internalType": "address",
          "name": "to",
          "type": "address"
        },
        {
          "internalType": "uint256",
          "name": "tokenId",
          "type": "uint256"
        }
      ],
      "name": "safeTransferFrom",
      "outputs": [],
      "stateMutability": "nonpayable",
      "type": "function"
    },
    {
      "inputs": [
        {
          "internalType": "address",
          "name": "from",
          "type": "address"
        },
        {
          "internalType": "address",
          "name": "to",
          "type": "address"
        },
        {
          "internalType": "uint256",
          "name": "tokenId",
          "type": "uint256"
        },
        {
          "internalType": "bytes",
          "name": "_data",
          "type": "bytes"
        }
      ],
      "name": "safeTransferFrom",
      "outputs": [],
      "stateMutability": "nonpayable",
      "type": "function"
    },
    {
      "inputs": [
        {
          "internalType": "address",
          "name": "operator",
          "type": "address"
        },
        {
          "internalType": "bool",
          "name": "approved",
          "type": "bool"
        }
      ],
      "name": "setApprovalForAll",
      "outputs": [],
      "stateMutability": "nonpayable",
      "type": "function"
    },
    {
      "inputs": [
        {
          "internalType": "bytes4",
          "name": "interfaceId",
          "type": "bytes4"
        }
      ],
      "name": "supportsInterface",
      "outputs": [
        {
          "internalType": "bool",
          "name": "",
          "type": "bool"
        }
      ],
      "stateMutability": "view",
      "type": "function"
    },
    {
      "inputs": [],
      "name": "symbol",
      "outputs": [
        {
          "internalType": "string",
          "name": "",
          "type": "string"
        }
      ],
      "stateMutability": "view",
      "type": "function"
    },
    {
      "inputs": [
        {
          "internalType": "uint256",
          "name": "tokenId",
          "type": "uint256"
        }
      ],
      "name": "tokenURI",
      "outputs": [
        {
          "internalType": "string",
          "name": "",
          "type": "string"
        }
      ],
      "stateMutability": "view",
      "type": "function"
    },
    {
      "inputs": [],
      "name": "totalSupply",
      "outputs": [
        {
          "internalType": "uint256",
          "name": "",
          "type": "uint256"
        }
      ],
      "stateMutability": "view",
      "type": "function"
    },
    {
      "inputs": [
        {
          "internalType": "address",
          "name": "from",
          "type": "address"
        },
        {
          "internalType": "address",
          "name": "to",
          "type": "address"
        },
        {
          "internalType": "uint256",
          "name": "tokenId",
          "type": "uint256"
        }
      ],
      "name": "transferFrom",
      "outputs": [],
      "stateMutability": "nonpayable",
      "type": "function"
    },
    {
      "inputs": [
        {
          "internalType": "address",
          "name": "newOwner",
          "type": "address"
        }
      ],
      "name": "transferOwnership",
      "outputs": [],
      "stateMutability": "nonpayable",
      "type": "function"
    },
    {
      "inputs": [],
      "name": "withdraw",
      "outputs": [],
      "stateMutability": "nonpayable",
      "type": "function"
    }
  ],
  "bytecode": "0x6080604052662386f26fc1000060085560016009553480156200002157600080fd5b506040805180820182526009815268119a5c9cdd0813919560ba1b6020808301918252835180850190945260068452650c5cdd13919560d21b908401528151919291620000719160009162000120565b5080516200008790600190602084019062000120565b505050620000a46200009e620000c160201b60201c565b620000c5565b620000bb60076200011760201b62000b351760201c565b62000203565b3390565b600680546001600160a01b038381166001600160a01b0319831681179093556040519116919082907f8be0079c531659141344cd1fd0a4f28419497f9722a3daafe3b4186f6b6457e090600090a35050565b80546001019055565b8280546200012e90620001c6565b90600052602060002090601f0160209004810192826200015257600085556200019d565b82601f106200016d57805160ff19168380011785556200019d565b828001600101855582156200019d579182015b828111156200019d57825182559160200191906001019062000180565b50620001ab929150620001af565b5090565b5b80821115620001ab5760008155600101620001b0565b600181811c90821680620001db57607f821691505b60208210811415620001fd57634e487b7160e01b600052602260045260246000fd5b50919050565b61186880620002136000396000f3fe6080604052600436106101355760003560e01c806370a08231116100ab578063a035b1fe1161006f578063a035b1fe14610320578063a22cb46514610336578063b88d4fde14610356578063c87b56dd14610376578063e985e9c514610396578063f2fde38b146103df57600080fd5b806370a08231146102b0578063715018a6146102d05780638da5cb5b146102e5578063921234701461030357806395d89b411461030b57600080fd5b806323b872dd116100fd57806323b872dd1461020e5780633aa5af231461022e5780633ccfd60b1461024457806342842e0e146102595780634a60f620146102795780636352211e1461029057600080fd5b806301ffc9a71461013a57806306fdde031461016f578063081812fc14610191578063095ea7b3146101c957806318160ddd146101eb575b600080fd5b34801561014657600080fd5b5061015a610155366004611515565b6103ff565b60405190151581526020015b60405180910390f35b34801561017b57600080fd5b50610184610451565b6040516101669190611600565b34801561019d57600080fd5b506101b16101ac36600461154f565b6104e3565b6040516001600160a01b039091168152602001610166565b3480156101d557600080fd5b506101e96101e43660046114eb565b61057d565b005b3480156101f757600080fd5b50610200610693565b604051908152602001610166565b34801561021a57600080fd5b506101e9610229366004611397565b6106af565b34801561023a57600080fd5b5061020060095481565b34801561025057600080fd5b506101e96106e0565b34801561026557600080fd5b506101e9610274366004611397565b610730565b34801561028557600080fd5b506007546102009081565b34801561029c57600080fd5b506101b16102ab36600461154f565b61074b565b3480156102bc57600080fd5b506102006102cb366004611349565b6107c2565b3480156102dc57600080fd5b506101e9610849565b3480156102f157600080fd5b506006546001600160a01b03166101b1565b6101e961087d565b34801561031757600080fd5b5061018461095f565b34801561032c57600080fd5b5061020060085481565b34801561034257600080fd5b506101e96103513660046114af565b61096e565b34801561036257600080fd5b506101e96103713660046113d3565b61097d565b34801561038257600080fd5b5061018461039136600461154f565b6109b5565b3480156103a257600080fd5b5061015a6103b1366004611364565b6001600160a01b03918216600090815260056020908152604080832093909416825291909152205460ff1690565b3480156103eb57600080fd5b506101e96103fa366004611349565b610a9d565b60006001600160e01b031982166380ac58cd60e01b148061043057506001600160e01b03198216635b5e139f60e01b145b8061044b57506301ffc9a760e01b6001600160e01b03198316145b92915050565b6060600080546104609061175a565b80601f016020809104026020016040519081016040528092919081815260200182805461048c9061175a565b80156104d95780601f106104ae576101008083540402835291602001916104d9565b820191906000526020600020905b8154815290600101906020018083116104bc57829003601f168201915b5050505050905090565b6000818152600260205260408120546001600160a01b03166105615760405162461bcd60e51b815260206004820152602c60248201527f4552433732313a20617070726f76656420717565727920666f72206e6f6e657860448201526b34b9ba32b73a103a37b5b2b760a11b60648201526084015b60405180910390fd5b506000908152600460205260409020546001600160a01b031690565b60006105888261074b565b9050806001600160a01b0316836001600160a01b031614156105f65760405162461bcd60e51b815260206004820152602160248201527f4552433732313a20617070726f76616c20746f2063757272656e74206f776e656044820152603960f91b6064820152608401610558565b336001600160a01b0382161480610612575061061281336103b1565b6106845760405162461bcd60e51b815260206004820152603860248201527f4552433732313a20617070726f76652063616c6c6572206973206e6f74206f7760448201527f6e6572206e6f7220617070726f76656420666f7220616c6c00000000000000006064820152608401610558565b61068e8383610b3e565b505050565b600060016106a060075490565b6106aa9190611717565b905090565b6106b93382610bac565b6106d55760405162461bcd60e51b81526004016105589061169a565b61068e838383610ca3565b6006546001600160a01b0316331461070a5760405162461bcd60e51b815260040161055890611665565b60405133904780156108fc02916000818181858888f1935050505061072e57600080fd5b565b61068e8383836040518060200160405280600081525061097d565b6000818152600260205260408120546001600160a01b03168061044b5760405162461bcd60e51b815260206004820152602960248201527f4552433732313a206f776e657220717565727920666f72206e6f6e657869737460448201526832b73a103a37b5b2b760b91b6064820152608401610558565b60006001600160a01b03821661082d5760405162461bcd60e51b815260206004820152602a60248201527f4552433732313a2062616c616e636520717565727920666f7220746865207a65604482015269726f206164647265737360b01b6064820152608401610558565b506001600160a01b031660009081526003602052604090205490565b6006546001600160a01b031633146108735760405162461bcd60e51b815260040161055890611665565b61072e6000610e3f565b600061088860075490565b9050600954610896336107c2565b106108f95760405162461bcd60e51b815260206004820152602d60248201527f507572636861736520776f756c642065786365656420746865207175616e746960448201526c1d1e481c195c881dd85b1b195d609a1b6064820152608401610558565b6008543410156109445760405162461bcd60e51b815260206004820152601660248201527542616c616e636520697320756e64657220707269636560501b6044820152606401610558565b61094e3382610e91565b61095c600780546001019055565b50565b6060600180546104609061175a565b610979338383610eab565b5050565b6109873383610bac565b6109a35760405162461bcd60e51b81526004016105589061169a565b6109af84848484610f7a565b50505050565b6000818152600260205260409020546060906001600160a01b0316610a345760405162461bcd60e51b815260206004820152602f60248201527f4552433732314d657461646174613a2055524920717565727920666f72206e6f60448201526e3732bc34b9ba32b73a103a37b5b2b760891b6064820152608401610558565b6000610a4b60408051602081019091526000815290565b90506000815111610a6b5760405180602001604052806000815250610a96565b80610a7584610fad565b604051602001610a86929190611594565b6040516020818303038152906040525b9392505050565b6006546001600160a01b03163314610ac75760405162461bcd60e51b815260040161055890611665565b6001600160a01b038116610b2c5760405162461bcd60e51b815260206004820152602660248201527f4f776e61626c653a206e6577206f776e657220697320746865207a65726f206160448201526564647265737360d01b6064820152608401610558565b61095c81610e3f565b80546001019055565b600081815260046020526040902080546001600160a01b0319166001600160a01b0384169081179091558190610b738261074b565b6001600160a01b03167f8c5be1e5ebec7d5bd14f71427d1e84f3dd0314c0f7b2291e5b200ac8c7c3b92560405160405180910390a45050565b6000818152600260205260408120546001600160a01b0316610c255760405162461bcd60e51b815260206004820152602c60248201527f4552433732313a206f70657261746f7220717565727920666f72206e6f6e657860448201526b34b9ba32b73a103a37b5b2b760a11b6064820152608401610558565b6000610c308361074b565b9050806001600160a01b0316846001600160a01b03161480610c6b5750836001600160a01b0316610c60846104e3565b6001600160a01b0316145b80610c9b57506001600160a01b0380821660009081526005602090815260408083209388168352929052205460ff165b949350505050565b826001600160a01b0316610cb68261074b565b6001600160a01b031614610d1a5760405162461bcd60e51b815260206004820152602560248201527f4552433732313a207472616e736665722066726f6d20696e636f72726563742060448201526437bbb732b960d91b6064820152608401610558565b6001600160a01b038216610d7c5760405162461bcd60e51b8152602060048201526024808201527f4552433732313a207472616e7366657220746f20746865207a65726f206164646044820152637265737360e01b6064820152608401610558565b610d87600082610b3e565b6001600160a01b0383166000908152600360205260408120805460019290610db0908490611717565b90915550506001600160a01b0382166000908152600360205260408120805460019290610dde9084906116eb565b909155505060008181526002602052604080822080546001600160a01b0319166001600160a01b0386811691821790925591518493918716917fddf252ad1be2c89b69c2b068fc378daa952ba7f163c4a11628f55a4df523b3ef91a4505050565b600680546001600160a01b038381166001600160a01b0319831681179093556040519116919082907f8be0079c531659141344cd1fd0a4f28419497f9722a3daafe3b4186f6b6457e090600090a35050565b6109798282604051806020016040528060008152506110ab565b816001600160a01b0316836001600160a01b03161415610f0d5760405162461bcd60e51b815260206004820152601960248201527f4552433732313a20617070726f766520746f2063616c6c6572000000000000006044820152606401610558565b6001600160a01b03838116600081815260056020908152604080832094871680845294825291829020805460ff191686151590811790915591519182527f17307eab39ab6107e8899845ad3d59bd9653f200f220920489ca2b5937696c31910160405180910390a3505050565b610f85848484610ca3565b610f91848484846110de565b6109af5760405162461bcd60e51b815260040161055890611613565b606081610fd15750506040805180820190915260018152600360fc1b602082015290565b8160005b8115610ffb5780610fe581611795565b9150610ff49050600a83611703565b9150610fd5565b60008167ffffffffffffffff81111561101657611016611806565b6040519080825280601f01601f191660200182016040528015611040576020820181803683370190505b5090505b8415610c9b57611055600183611717565b9150611062600a866117b0565b61106d9060306116eb565b60f81b818381518110611082576110826117f0565b60200101906001600160f81b031916908160001a9053506110a4600a86611703565b9450611044565b6110b583836111eb565b6110c260008484846110de565b61068e5760405162461bcd60e51b815260040161055890611613565b60006001600160a01b0384163b156111e057604051630a85bd0160e11b81526001600160a01b0385169063150b7a02906111229033908990889088906004016115c3565b602060405180830381600087803b15801561113c57600080fd5b505af192505050801561116c575060408051601f3d908101601f1916820190925261116991810190611532565b60015b6111c6573d80801561119a576040519150601f19603f3d011682016040523d82523d6000602084013e61119f565b606091505b5080516111be5760405162461bcd60e51b815260040161055890611613565b805181602001fd5b6001600160e01b031916630a85bd0160e11b149050610c9b565b506001949350505050565b6001600160a01b0382166112415760405162461bcd60e51b815260206004820181905260248201527f4552433732313a206d696e7420746f20746865207a65726f20616464726573736044820152606401610558565b6000818152600260205260409020546001600160a01b0316156112a65760405162461bcd60e51b815260206004820152601c60248201527f4552433732313a20746f6b656e20616c7265616479206d696e746564000000006044820152606401610558565b6001600160a01b03821660009081526003602052604081208054600192906112cf9084906116eb565b909155505060008181526002602052604080822080546001600160a01b0319166001600160a01b03861690811790915590518392907fddf252ad1be2c89b69c2b068fc378daa952ba7f163c4a11628f55a4df523b3ef908290a45050565b80356001600160a01b038116811461134457600080fd5b919050565b60006020828403121561135b57600080fd5b610a968261132d565b6000806040838503121561137757600080fd5b6113808361132d565b915061138e6020840161132d565b90509250929050565b6000806000606084860312156113ac57600080fd5b6113b58461132d565b92506113c36020850161132d565b9150604084013590509250925092565b600080600080608085870312156113e957600080fd5b6113f28561132d565b93506114006020860161132d565b925060408501359150606085013567ffffffffffffffff8082111561142457600080fd5b818701915087601f83011261143857600080fd5b81358181111561144a5761144a611806565b604051601f8201601f19908116603f0116810190838211818310171561147257611472611806565b816040528281528a602084870101111561148b57600080fd5b82602086016020830137600060208483010152809550505050505092959194509250565b600080604083850312156114c257600080fd5b6114cb8361132d565b9150602083013580151581146114e057600080fd5b809150509250929050565b600080604083850312156114fe57600080fd5b6115078361132d565b946020939093013593505050565b60006020828403121561152757600080fd5b8135610a968161181c565b60006020828403121561154457600080fd5b8151610a968161181c565b60006020828403121561156157600080fd5b5035919050565b6000815180845261158081602086016020860161172e565b601f01601f19169290920160200192915050565b600083516115a681846020880161172e565b8351908301906115ba81836020880161172e565b01949350505050565b6001600160a01b03858116825284166020820152604081018390526080606082018190526000906115f690830184611568565b9695505050505050565b602081526000610a966020830184611568565b60208082526032908201527f4552433732313a207472616e7366657220746f206e6f6e20455243373231526560408201527131b2b4bb32b91034b6b83632b6b2b73a32b960711b606082015260800190565b6020808252818101527f4f776e61626c653a2063616c6c6572206973206e6f7420746865206f776e6572604082015260600190565b60208082526031908201527f4552433732313a207472616e736665722063616c6c6572206973206e6f74206f6040820152701ddb995c881b9bdc88185c1c1c9bdd9959607a1b606082015260800190565b600082198211156116fe576116fe6117c4565b500190565b600082611712576117126117da565b500490565b600082821015611729576117296117c4565b500390565b60005b83811015611749578181015183820152602001611731565b838111156109af5750506000910152565b600181811c9082168061176e57607f821691505b6020821081141561178f57634e487b7160e01b600052602260045260246000fd5b50919050565b60006000198214156117a9576117a96117c4565b5060010190565b6000826117bf576117bf6117da565b500690565b634e487b7160e01b600052601160045260246000fd5b634e487b7160e01b600052601260045260246000fd5b634e487b7160e01b600052603260045260246000fd5b634e487b7160e01b600052604160045260246000fd5b6001600160e01b03198116811461095c57600080fdfea2646970667358221220e7ff5c6670384433458a17eed199fbdcc009df35a023e78de5b84503b06ebf3e64736f6c63430008070033",
  "linkReferences": {},
  "deployedLinkReferences": {}
}