{
  "_format": "hh-sol-artifact-1",
  "contractName": "FirstNFT",
  "sourceName": "contracts/firstNFT.sol",
  "abi": [
    {
      "inputs": [],
      "stateMutability": "nonpayable",
      "type": "constructor"
    },
    {
      "anonymous": false,
      "inputs": [
        {
          "indexed": true,
          "internalType": "address",
          "name": "owner",
          "type": "address"
        },
        {
          "indexed": true,
          "internalType": "address",
          "name": "approved",
          "type": "address"
        },
        {
          "indexed": true,
          "internalType": "uint256",
          "name": "tokenId",
          "type": "uint256"
        }
      ],
      "name": "Approval",
      "type": "event"
    },
    {
      "anonymous": false,
      "inputs": [
        {
          "indexed": true,
          "internalType": "address",
          "name": "owner",
          "type": "address"
        },
        {
          "indexed": true,
          "internalType": "address",
          "name": "operator",
          "type": "address"
        },
        {
          "indexed": false,
          "internalType": "bool",
          "name": "approved",
          "type": "bool"
        }
      ],
      "name": "ApprovalForAll",
      "type": "event"
    },
    {
      "anonymous": false,
      "inputs": [
        {
          "indexed": true,
          "internalType": "address",
          "name": "previousOwner",
          "type": "address"
        },
        {
          "indexed": true,
          "internalType": "address",
          "name": "newOwner",
          "type": "address"
        }
      ],
      "name": "OwnershipTransferred",
      "type": "event"
    },
    {
      "anonymous": false,
      "inputs": [
        {
          "indexed": true,
          "internalType": "address",
          "name": "from",
          "type": "address"
        },
        {
          "indexed": true,
          "internalType": "address",
          "name": "to",
          "type": "address"
        },
        {
          "indexed": true,
          "internalType": "uint256",
          "name": "tokenId",
          "type": "uint256"
        }
      ],
      "name": "Transfer",
      "type": "event"
    },
    {
      "inputs": [
        {
          "internalType": "uint256",
          "name": "",
          "type": "uint256"
        }
      ],
      "name": "_middleOwners",
      "outputs": [
        {
          "internalType": "address",
          "name": "",
          "type": "address"
        }
      ],
      "stateMutability": "view",
      "type": "function"
    },
    {
      "inputs": [],
      "name": "_nextTokenId",
      "outputs": [
        {
          "internalType": "uint256",
          "name": "_value",
          "type": "uint256"
        }
      ],
      "stateMutability": "view",
      "type": "function"
    },
    {
      "inputs": [
        {
          "internalType": "address",
          "name": "to",
          "type": "address"
        },
        {
          "internalType": "uint256",
          "name": "tokenId",
          "type": "uint256"
        }
      ],
      "name": "approve",
      "outputs": [],
      "stateMutability": "nonpayable",
      "type": "function"
    },
    {
      "inputs": [
        {
          "internalType": "address",
          "name": "owner",
          "type": "address"
        }
      ],
      "name": "balanceOf",
      "outputs": [
        {
          "internalType": "uint256",
          "name": "",
          "type": "uint256"
        }
      ],
      "stateMutability": "view",
      "type": "function"
    },
    {
      "inputs": [
        {
          "internalType": "uint256",
          "name": "tokenId",
          "type": "uint256"
        }
      ],
      "name": "getApproved",
      "outputs": [
        {
          "internalType": "address",
          "name": "",
          "type": "address"
        }
      ],
      "stateMutability": "view",
      "type": "function"
    },
    {
      "inputs": [
        {
          "internalType": "address",
          "name": "owner",
          "type": "address"
        },
        {
          "internalType": "address",
          "name": "operator",
          "type": "address"
        }
      ],
      "name": "isApprovedForAll",
      "outputs": [
        {
          "internalType": "bool",
          "name": "",
          "type": "bool"
        }
      ],
      "stateMutability": "view",
      "type": "function"
    },
    {
      "inputs": [],
      "name": "mintAtTime",
      "outputs": [],
      "stateMutability": "nonpayable",
      "type": "function"
    },
    {
      "inputs": [],
      "name": "mintTime",
      "outputs": [
        {
          "internalType": "uint256",
          "name": "",
          "type": "uint256"
        }
      ],
      "stateMutability": "view",
      "type": "function"
    },
    {
      "inputs": [],
      "name": "mintTo",
      "outputs": [],
      "stateMutability": "payable",
      "type": "function"
    },
    {
      "inputs": [],
      "name": "name",
      "outputs": [
        {
          "internalType": "string",
          "name": "",
          "type": "string"
        }
      ],
      "stateMutability": "view",
      "type": "function"
    },
    {
      "inputs": [],
      "name": "owner",
      "outputs": [
        {
          "internalType": "address",
          "name": "",
          "type": "address"
        }
      ],
      "stateMutability": "view",
      "type": "function"
    },
    {
      "inputs": [
        {
          "internalType": "uint256",
          "name": "tokenId",
          "type": "uint256"
        }
      ],
      "name": "ownerOf",
      "outputs": [
        {
          "internalType": "address",
          "name": "",
          "type": "address"
        }
      ],
      "stateMutability": "view",
      "type": "function"
    },
    {
      "inputs": [],
      "name": "price",
      "outputs": [
        {
          "internalType": "uint256",
          "name": "",
          "type": "uint256"
        }
      ],
      "stateMutability": "view",
      "type": "function"
    },
    {
      "inputs": [],
      "name": "qtyPerWallet",
      "outputs": [
        {
          "internalType": "uint256",
          "name": "",
          "type": "uint256"
        }
      ],
      "stateMutability": "view",
      "type": "function"
    },
    {
      "inputs": [],
      "name": "renounceOwnership",
      "outputs": [],
      "stateMutability": "nonpayable",
      "type": "function"
    },
    {
      "inputs": [
        {
          "internalType": "address",
          "name": "from",
          "type": "address"
        },
        {
          "internalType": "address",
          "name": "to",
          "type": "address"
        },
        {
          "internalType": "uint256",
          "name": "tokenId",
          "type": "uint256"
        }
      ],
      "name": "safeTransferFrom",
      "outputs": [],
      "stateMutability": "nonpayable",
      "type": "function"
    },
    {
      "inputs": [
        {
          "internalType": "address",
          "name": "from",
          "type": "address"
        },
        {
          "internalType": "address",
          "name": "to",
          "type": "address"
        },
        {
          "internalType": "uint256",
          "name": "tokenId",
          "type": "uint256"
        },
        {
          "internalType": "bytes",
          "name": "_data",
          "type": "bytes"
        }
      ],
      "name": "safeTransferFrom",
      "outputs": [],
      "stateMutability": "nonpayable",
      "type": "function"
    },
    {
      "inputs": [
        {
          "internalType": "address",
          "name": "operator",
          "type": "address"
        },
        {
          "internalType": "bool",
          "name": "approved",
          "type": "bool"
        }
      ],
      "name": "setApprovalForAll",
      "outputs": [],
      "stateMutability": "nonpayable",
      "type": "function"
    },
    {
      "inputs": [
        {
          "internalType": "uint256",
          "name": "_mintTime",
          "type": "uint256"
        }
      ],
      "name": "setMintTime",
      "outputs": [],
      "stateMutability": "nonpayable",
      "type": "function"
    },
    {
      "inputs": [
        {
          "internalType": "bytes4",
          "name": "interfaceId",
          "type": "bytes4"
        }
      ],
      "name": "supportsInterface",
      "outputs": [
        {
          "internalType": "bool",
          "name": "",
          "type": "bool"
        }
      ],
      "stateMutability": "view",
      "type": "function"
    },
    {
      "inputs": [],
      "name": "symbol",
      "outputs": [
        {
          "internalType": "string",
          "name": "",
          "type": "string"
        }
      ],
      "stateMutability": "view",
      "type": "function"
    },
    {
      "inputs": [
        {
          "internalType": "uint256",
          "name": "tokenId",
          "type": "uint256"
        }
      ],
      "name": "tokenURI",
      "outputs": [
        {
          "internalType": "string",
          "name": "",
          "type": "string"
        }
      ],
      "stateMutability": "view",
      "type": "function"
    },
    {
      "inputs": [],
      "name": "totalSupply",
      "outputs": [
        {
          "internalType": "uint256",
          "name": "",
          "type": "uint256"
        }
      ],
      "stateMutability": "view",
      "type": "function"
    },
    {
      "inputs": [
        {
          "internalType": "address",
          "name": "from",
          "type": "address"
        },
        {
          "internalType": "address",
          "name": "to",
          "type": "address"
        },
        {
          "internalType": "uint256",
          "name": "tokenId",
          "type": "uint256"
        }
      ],
      "name": "transferFrom",
      "outputs": [],
      "stateMutability": "nonpayable",
      "type": "function"
    },
    {
      "inputs": [
        {
          "internalType": "address",
          "name": "newOwner",
          "type": "address"
        }
      ],
      "name": "transferOwnership",
      "outputs": [],
      "stateMutability": "nonpayable",
      "type": "function"
    },
    {
      "inputs": [],
      "name": "withdraw",
      "outputs": [],
      "stateMutability": "nonpayable",
      "type": "function"
    }
  ],
  "bytecode": "0x6080604052662386f26fc1000060085560016009556362c6e6e0600a553480156200002957600080fd5b506040805180820182526009815268119a5c9cdd0813919560ba1b6020808301918252835180850190945260068452650c5cdd13919560d21b908401528151919291620000799160009162000128565b5080516200008f90600190602084019062000128565b505050620000ac620000a6620000c960201b60201c565b620000cd565b620000c360076200011f60201b62000d401760201c565b6200020b565b3390565b600680546001600160a01b038381166001600160a01b0319831681179093556040519116919082907f8be0079c531659141344cd1fd0a4f28419497f9722a3daafe3b4186f6b6457e090600090a35050565b80546001019055565b8280546200013690620001ce565b90600052602060002090601f0160209004810192826200015a5760008555620001a5565b82601f106200017557805160ff1916838001178555620001a5565b82800160010185558215620001a5579182015b82811115620001a557825182559160200191906001019062000188565b50620001b3929150620001b7565b5090565b5b80821115620001b35760008155600101620001b8565b600181811c90821680620001e357607f821691505b602082108114156200020557634e487b7160e01b600052602260045260246000fd5b50919050565b611a73806200021b6000396000f3fe6080604052600436106101815760003560e01c806386478122116100d1578063b88d4fde1161008a578063dda52d5311610064578063dda52d531461042e578063df96d3a41461044e578063e985e9c514610463578063f2fde38b146104ac57600080fd5b8063b88d4fde146103b8578063c202df68146103d8578063c87b56dd1461040e57600080fd5b806386478122146103315780638da5cb5b14610347578063921234701461036557806395d89b411461036d578063a035b1fe14610382578063a22cb4651461039857600080fd5b80633aa5af231161013e5780634a60f620116101185780634a60f620146102c55780636352211e146102dc57806370a08231146102fc578063715018a61461031c57600080fd5b80633aa5af231461027a5780633ccfd60b1461029057806342842e0e146102a557600080fd5b806301ffc9a71461018657806306fdde03146101bb578063081812fc146101dd578063095ea7b31461021557806318160ddd1461023757806323b872dd1461025a575b600080fd5b34801561019257600080fd5b506101a66101a1366004611720565b6104cc565b60405190151581526020015b60405180910390f35b3480156101c757600080fd5b506101d061051e565b6040516101b2919061180b565b3480156101e957600080fd5b506101fd6101f836600461175a565b6105b0565b6040516001600160a01b0390911681526020016101b2565b34801561022157600080fd5b506102356102303660046116f6565b61064a565b005b34801561024357600080fd5b5061024c610760565b6040519081526020016101b2565b34801561026657600080fd5b506102356102753660046115a2565b61077c565b34801561028657600080fd5b5061024c60095481565b34801561029c57600080fd5b506102356107ad565b3480156102b157600080fd5b506102356102c03660046115a2565b6107fd565b3480156102d157600080fd5b5060075461024c9081565b3480156102e857600080fd5b506101fd6102f736600461175a565b610818565b34801561030857600080fd5b5061024c610317366004611554565b61088f565b34801561032857600080fd5b50610235610916565b34801561033d57600080fd5b5061024c600a5481565b34801561035357600080fd5b506006546001600160a01b03166101fd565b61023561094a565b34801561037957600080fd5b506101d0610a5e565b34801561038e57600080fd5b5061024c60085481565b3480156103a457600080fd5b506102356103b33660046116ba565b610a6d565b3480156103c457600080fd5b506102356103d33660046115de565b610a7c565b3480156103e457600080fd5b506101fd6103f336600461175a565b600b602052600090815260409020546001600160a01b031681565b34801561041a57600080fd5b506101d061042936600461175a565b610ab4565b34801561043a57600080fd5b5061023561044936600461175a565b610b9c565b34801561045a57600080fd5b50610235610bcb565b34801561046f57600080fd5b506101a661047e36600461156f565b6001600160a01b03918216600090815260056020908152604080832093909416825291909152205460ff1690565b3480156104b857600080fd5b506102356104c7366004611554565b610ca8565b60006001600160e01b031982166380ac58cd60e01b14806104fd57506001600160e01b03198216635b5e139f60e01b145b8061051857506301ffc9a760e01b6001600160e01b03198316145b92915050565b60606000805461052d90611965565b80601f016020809104026020016040519081016040528092919081815260200182805461055990611965565b80156105a65780601f1061057b576101008083540402835291602001916105a6565b820191906000526020600020905b81548152906001019060200180831161058957829003601f168201915b5050505050905090565b6000818152600260205260408120546001600160a01b031661062e5760405162461bcd60e51b815260206004820152602c60248201527f4552433732313a20617070726f76656420717565727920666f72206e6f6e657860448201526b34b9ba32b73a103a37b5b2b760a11b60648201526084015b60405180910390fd5b506000908152600460205260409020546001600160a01b031690565b600061065582610818565b9050806001600160a01b0316836001600160a01b031614156106c35760405162461bcd60e51b815260206004820152602160248201527f4552433732313a20617070726f76616c20746f2063757272656e74206f776e656044820152603960f91b6064820152608401610625565b336001600160a01b03821614806106df57506106df813361047e565b6107515760405162461bcd60e51b815260206004820152603860248201527f4552433732313a20617070726f76652063616c6c6572206973206e6f74206f7760448201527f6e6572206e6f7220617070726f76656420666f7220616c6c00000000000000006064820152608401610625565b61075b8383610d49565b505050565b6000600161076d60075490565b6107779190611922565b905090565b6107863382610db7565b6107a25760405162461bcd60e51b8152600401610625906118a5565b61075b838383610eae565b6006546001600160a01b031633146107d75760405162461bcd60e51b815260040161062590611870565b60405133904780156108fc02916000818181858888f193505050506107fb57600080fd5b565b61075b83838360405180602001604052806000815250610a7c565b6000818152600260205260408120546001600160a01b0316806105185760405162461bcd60e51b815260206004820152602960248201527f4552433732313a206f776e657220717565727920666f72206e6f6e657869737460448201526832b73a103a37b5b2b760b91b6064820152608401610625565b60006001600160a01b0382166108fa5760405162461bcd60e51b815260206004820152602a60248201527f4552433732313a2062616c616e636520717565727920666f7220746865207a65604482015269726f206164647265737360b01b6064820152608401610625565b506001600160a01b031660009081526003602052604090205490565b6006546001600160a01b031633146109405760405162461bcd60e51b815260040161062590611870565b6107fb600061104a565b600061095560075490565b90506009546109633361088f565b106109c65760405162461bcd60e51b815260206004820152602d60248201527f507572636861736520776f756c642065786365656420746865207175616e746960448201526c1d1e481c195c881dd85b1b195d609a1b6064820152608401610625565b600854341015610a185760405162461bcd60e51b815260206004820152601960248201527f65746865722073656e6420697320756e646572207072696365000000000000006044820152606401610625565b610a26600780546001019055565b600a54421115610a3d57610a3a338261109c565b50565b6000818152600b6020526040902080546001600160a01b0319163317905550565b60606001805461052d90611965565b610a783383836110b6565b5050565b610a863383610db7565b610aa25760405162461bcd60e51b8152600401610625906118a5565b610aae84848484611185565b50505050565b6000818152600260205260409020546060906001600160a01b0316610b335760405162461bcd60e51b815260206004820152602f60248201527f4552433732314d657461646174613a2055524920717565727920666f72206e6f60448201526e3732bc34b9ba32b73a103a37b5b2b760891b6064820152608401610625565b6000610b4a60408051602081019091526000815290565b90506000815111610b6a5760405180602001604052806000815250610b95565b80610b74846111b8565b604051602001610b8592919061179f565b6040516020818303038152906040525b9392505050565b6006546001600160a01b03163314610bc65760405162461bcd60e51b815260040161062590611870565b600a55565b600a54421015610c1d5760405162461bcd60e51b815260206004820181905260248201527f596f752063616e206765742031204e465420617420676976656e2074696d65216044820152606401610625565b60015b610c28610760565b8111610a3a576000818152600b60205260408120546001600160a01b031615610c95576000828152600b6020526040902054610c6d906001600160a01b03168361109c565b6000828152600b6020526040902080546001600160a01b0319166001600160a01b0383161790555b5080610ca0816119a0565b915050610c20565b6006546001600160a01b03163314610cd25760405162461bcd60e51b815260040161062590611870565b6001600160a01b038116610d375760405162461bcd60e51b815260206004820152602660248201527f4f776e61626c653a206e6577206f776e657220697320746865207a65726f206160448201526564647265737360d01b6064820152608401610625565b610a3a8161104a565b80546001019055565b600081815260046020526040902080546001600160a01b0319166001600160a01b0384169081179091558190610d7e82610818565b6001600160a01b03167f8c5be1e5ebec7d5bd14f71427d1e84f3dd0314c0f7b2291e5b200ac8c7c3b92560405160405180910390a45050565b6000818152600260205260408120546001600160a01b0316610e305760405162461bcd60e51b815260206004820152602c60248201527f4552433732313a206f70657261746f7220717565727920666f72206e6f6e657860448201526b34b9ba32b73a103a37b5b2b760a11b6064820152608401610625565b6000610e3b83610818565b9050806001600160a01b0316846001600160a01b03161480610e765750836001600160a01b0316610e6b846105b0565b6001600160a01b0316145b80610ea657506001600160a01b0380821660009081526005602090815260408083209388168352929052205460ff165b949350505050565b826001600160a01b0316610ec182610818565b6001600160a01b031614610f255760405162461bcd60e51b815260206004820152602560248201527f4552433732313a207472616e736665722066726f6d20696e636f72726563742060448201526437bbb732b960d91b6064820152608401610625565b6001600160a01b038216610f875760405162461bcd60e51b8152602060048201526024808201527f4552433732313a207472616e7366657220746f20746865207a65726f206164646044820152637265737360e01b6064820152608401610625565b610f92600082610d49565b6001600160a01b0383166000908152600360205260408120805460019290610fbb908490611922565b90915550506001600160a01b0382166000908152600360205260408120805460019290610fe99084906118f6565b909155505060008181526002602052604080822080546001600160a01b0319166001600160a01b0386811691821790925591518493918716917fddf252ad1be2c89b69c2b068fc378daa952ba7f163c4a11628f55a4df523b3ef91a4505050565b600680546001600160a01b038381166001600160a01b0319831681179093556040519116919082907f8be0079c531659141344cd1fd0a4f28419497f9722a3daafe3b4186f6b6457e090600090a35050565b610a788282604051806020016040528060008152506112b6565b816001600160a01b0316836001600160a01b031614156111185760405162461bcd60e51b815260206004820152601960248201527f4552433732313a20617070726f766520746f2063616c6c6572000000000000006044820152606401610625565b6001600160a01b03838116600081815260056020908152604080832094871680845294825291829020805460ff191686151590811790915591519182527f17307eab39ab6107e8899845ad3d59bd9653f200f220920489ca2b5937696c31910160405180910390a3505050565b611190848484610eae565b61119c848484846112e9565b610aae5760405162461bcd60e51b81526004016106259061181e565b6060816111dc5750506040805180820190915260018152600360fc1b602082015290565b8160005b811561120657806111f0816119a0565b91506111ff9050600a8361190e565b91506111e0565b60008167ffffffffffffffff81111561122157611221611a11565b6040519080825280601f01601f19166020018201604052801561124b576020820181803683370190505b5090505b8415610ea657611260600183611922565b915061126d600a866119bb565b6112789060306118f6565b60f81b81838151811061128d5761128d6119fb565b60200101906001600160f81b031916908160001a9053506112af600a8661190e565b945061124f565b6112c083836113f6565b6112cd60008484846112e9565b61075b5760405162461bcd60e51b81526004016106259061181e565b60006001600160a01b0384163b156113eb57604051630a85bd0160e11b81526001600160a01b0385169063150b7a029061132d9033908990889088906004016117ce565b602060405180830381600087803b15801561134757600080fd5b505af1925050508015611377575060408051601f3d908101601f191682019092526113749181019061173d565b60015b6113d1573d8080156113a5576040519150601f19603f3d011682016040523d82523d6000602084013e6113aa565b606091505b5080516113c95760405162461bcd60e51b81526004016106259061181e565b805181602001fd5b6001600160e01b031916630a85bd0160e11b149050610ea6565b506001949350505050565b6001600160a01b03821661144c5760405162461bcd60e51b815260206004820181905260248201527f4552433732313a206d696e7420746f20746865207a65726f20616464726573736044820152606401610625565b6000818152600260205260409020546001600160a01b0316156114b15760405162461bcd60e51b815260206004820152601c60248201527f4552433732313a20746f6b656e20616c7265616479206d696e746564000000006044820152606401610625565b6001600160a01b03821660009081526003602052604081208054600192906114da9084906118f6565b909155505060008181526002602052604080822080546001600160a01b0319166001600160a01b03861690811790915590518392907fddf252ad1be2c89b69c2b068fc378daa952ba7f163c4a11628f55a4df523b3ef908290a45050565b80356001600160a01b038116811461154f57600080fd5b919050565b60006020828403121561156657600080fd5b610b9582611538565b6000806040838503121561158257600080fd5b61158b83611538565b915061159960208401611538565b90509250929050565b6000806000606084860312156115b757600080fd5b6115c084611538565b92506115ce60208501611538565b9150604084013590509250925092565b600080600080608085870312156115f457600080fd5b6115fd85611538565b935061160b60208601611538565b925060408501359150606085013567ffffffffffffffff8082111561162f57600080fd5b818701915087601f83011261164357600080fd5b81358181111561165557611655611a11565b604051601f8201601f19908116603f0116810190838211818310171561167d5761167d611a11565b816040528281528a602084870101111561169657600080fd5b82602086016020830137600060208483010152809550505050505092959194509250565b600080604083850312156116cd57600080fd5b6116d683611538565b9150602083013580151581146116eb57600080fd5b809150509250929050565b6000806040838503121561170957600080fd5b61171283611538565b946020939093013593505050565b60006020828403121561173257600080fd5b8135610b9581611a27565b60006020828403121561174f57600080fd5b8151610b9581611a27565b60006020828403121561176c57600080fd5b5035919050565b6000815180845261178b816020860160208601611939565b601f01601f19169290920160200192915050565b600083516117b1818460208801611939565b8351908301906117c5818360208801611939565b01949350505050565b6001600160a01b038581168252841660208201526040810183905260806060820181905260009061180190830184611773565b9695505050505050565b602081526000610b956020830184611773565b60208082526032908201527f4552433732313a207472616e7366657220746f206e6f6e20455243373231526560408201527131b2b4bb32b91034b6b83632b6b2b73a32b960711b606082015260800190565b6020808252818101527f4f776e61626c653a2063616c6c6572206973206e6f7420746865206f776e6572604082015260600190565b60208082526031908201527f4552433732313a207472616e736665722063616c6c6572206973206e6f74206f6040820152701ddb995c881b9bdc88185c1c1c9bdd9959607a1b606082015260800190565b60008219821115611909576119096119cf565b500190565b60008261191d5761191d6119e5565b500490565b600082821015611934576119346119cf565b500390565b60005b8381101561195457818101518382015260200161193c565b83811115610aae5750506000910152565b600181811c9082168061197957607f821691505b6020821081141561199a57634e487b7160e01b600052602260045260246000fd5b50919050565b60006000198214156119b4576119b46119cf565b5060010190565b6000826119ca576119ca6119e5565b500690565b634e487b7160e01b600052601160045260246000fd5b634e487b7160e01b600052601260045260246000fd5b634e487b7160e01b600052603260045260246000fd5b634e487b7160e01b600052604160045260246000fd5b6001600160e01b031981168114610a3a57600080fdfea2646970667358221220e6c4e214ac28aab132ed3794c7efdb7d580753664a326ce565b71ce812d1d56064736f6c63430008070033",
  "linkReferences": {},
  "deployedLinkReferences": {}
}