{
  "_format": "hh-sol-artifact-1",
  "contractName": "SecondNFT",
  "sourceName": "contracts/secondNFT.sol",
  "abi": [
    {
      "inputs": [
        {
          "internalType": "address",
          "name": "_firstContractAddress",
          "type": "address"
        }
      ],
      "stateMutability": "nonpayable",
      "type": "constructor"
    },
    {
      "anonymous": false,
      "inputs": [
        {
          "indexed": true,
          "internalType": "address",
          "name": "owner",
          "type": "address"
        },
        {
          "indexed": true,
          "internalType": "address",
          "name": "approved",
          "type": "address"
        },
        {
          "indexed": true,
          "internalType": "uint256",
          "name": "tokenId",
          "type": "uint256"
        }
      ],
      "name": "Approval",
      "type": "event"
    },
    {
      "anonymous": false,
      "inputs": [
        {
          "indexed": true,
          "internalType": "address",
          "name": "owner",
          "type": "address"
        },
        {
          "indexed": true,
          "internalType": "address",
          "name": "operator",
          "type": "address"
        },
        {
          "indexed": false,
          "internalType": "bool",
          "name": "approved",
          "type": "bool"
        }
      ],
      "name": "ApprovalForAll",
      "type": "event"
    },
    {
      "anonymous": false,
      "inputs": [
        {
          "indexed": true,
          "internalType": "address",
          "name": "previousOwner",
          "type": "address"
        },
        {
          "indexed": true,
          "internalType": "address",
          "name": "newOwner",
          "type": "address"
        }
      ],
      "name": "OwnershipTransferred",
      "type": "event"
    },
    {
      "anonymous": false,
      "inputs": [
        {
          "indexed": true,
          "internalType": "address",
          "name": "from",
          "type": "address"
        },
        {
          "indexed": true,
          "internalType": "address",
          "name": "to",
          "type": "address"
        },
        {
          "indexed": true,
          "internalType": "uint256",
          "name": "tokenId",
          "type": "uint256"
        }
      ],
      "name": "Transfer",
      "type": "event"
    },
    {
      "inputs": [],
      "name": "_nextTokenId",
      "outputs": [
        {
          "internalType": "uint256",
          "name": "_value",
          "type": "uint256"
        }
      ],
      "stateMutability": "view",
      "type": "function"
    },
    {
      "inputs": [
        {
          "internalType": "address",
          "name": "to",
          "type": "address"
        },
        {
          "internalType": "uint256",
          "name": "tokenId",
          "type": "uint256"
        }
      ],
      "name": "approve",
      "outputs": [],
      "stateMutability": "nonpayable",
      "type": "function"
    },
    {
      "inputs": [
        {
          "internalType": "address",
          "name": "owner",
          "type": "address"
        }
      ],
      "name": "balanceOf",
      "outputs": [
        {
          "internalType": "uint256",
          "name": "",
          "type": "uint256"
        }
      ],
      "stateMutability": "view",
      "type": "function"
    },
    {
      "inputs": [
        {
          "internalType": "uint256",
          "name": "_tokenId",
          "type": "uint256"
        }
      ],
      "name": "escrowNFT",
      "outputs": [],
      "stateMutability": "nonpayable",
      "type": "function"
    },
    {
      "inputs": [
        {
          "internalType": "uint256",
          "name": "",
          "type": "uint256"
        }
      ],
      "name": "escrowOwners",
      "outputs": [
        {
          "internalType": "address",
          "name": "",
          "type": "address"
        }
      ],
      "stateMutability": "view",
      "type": "function"
    },
    {
      "inputs": [],
      "name": "firstContractAddress",
      "outputs": [
        {
          "internalType": "address",
          "name": "",
          "type": "address"
        }
      ],
      "stateMutability": "view",
      "type": "function"
    },
    {
      "inputs": [
        {
          "internalType": "uint256",
          "name": "tokenId",
          "type": "uint256"
        }
      ],
      "name": "getApproved",
      "outputs": [
        {
          "internalType": "address",
          "name": "",
          "type": "address"
        }
      ],
      "stateMutability": "view",
      "type": "function"
    },
    {
      "inputs": [
        {
          "internalType": "address",
          "name": "owner",
          "type": "address"
        },
        {
          "internalType": "address",
          "name": "operator",
          "type": "address"
        }
      ],
      "name": "isApprovedForAll",
      "outputs": [
        {
          "internalType": "bool",
          "name": "",
          "type": "bool"
        }
      ],
      "stateMutability": "view",
      "type": "function"
    },
    {
      "inputs": [],
      "name": "mintTo",
      "outputs": [],
      "stateMutability": "nonpayable",
      "type": "function"
    },
    {
      "inputs": [],
      "name": "name",
      "outputs": [
        {
          "internalType": "string",
          "name": "",
          "type": "string"
        }
      ],
      "stateMutability": "view",
      "type": "function"
    },
    {
      "inputs": [],
      "name": "owner",
      "outputs": [
        {
          "internalType": "address",
          "name": "",
          "type": "address"
        }
      ],
      "stateMutability": "view",
      "type": "function"
    },
    {
      "inputs": [
        {
          "internalType": "uint256",
          "name": "tokenId",
          "type": "uint256"
        }
      ],
      "name": "ownerOf",
      "outputs": [
        {
          "internalType": "address",
          "name": "",
          "type": "address"
        }
      ],
      "stateMutability": "view",
      "type": "function"
    },
    {
      "inputs": [],
      "name": "renounceOwnership",
      "outputs": [],
      "stateMutability": "nonpayable",
      "type": "function"
    },
    {
      "inputs": [
        {
          "internalType": "address",
          "name": "from",
          "type": "address"
        },
        {
          "internalType": "address",
          "name": "to",
          "type": "address"
        },
        {
          "internalType": "uint256",
          "name": "tokenId",
          "type": "uint256"
        }
      ],
      "name": "safeTransferFrom",
      "outputs": [],
      "stateMutability": "nonpayable",
      "type": "function"
    },
    {
      "inputs": [
        {
          "internalType": "address",
          "name": "from",
          "type": "address"
        },
        {
          "internalType": "address",
          "name": "to",
          "type": "address"
        },
        {
          "internalType": "uint256",
          "name": "tokenId",
          "type": "uint256"
        },
        {
          "internalType": "bytes",
          "name": "_data",
          "type": "bytes"
        }
      ],
      "name": "safeTransferFrom",
      "outputs": [],
      "stateMutability": "nonpayable",
      "type": "function"
    },
    {
      "inputs": [
        {
          "internalType": "address",
          "name": "operator",
          "type": "address"
        },
        {
          "internalType": "bool",
          "name": "approved",
          "type": "bool"
        }
      ],
      "name": "setApprovalForAll",
      "outputs": [],
      "stateMutability": "nonpayable",
      "type": "function"
    },
    {
      "inputs": [
        {
          "internalType": "bytes4",
          "name": "interfaceId",
          "type": "bytes4"
        }
      ],
      "name": "supportsInterface",
      "outputs": [
        {
          "internalType": "bool",
          "name": "",
          "type": "bool"
        }
      ],
      "stateMutability": "view",
      "type": "function"
    },
    {
      "inputs": [],
      "name": "symbol",
      "outputs": [
        {
          "internalType": "string",
          "name": "",
          "type": "string"
        }
      ],
      "stateMutability": "view",
      "type": "function"
    },
    {
      "inputs": [
        {
          "internalType": "uint256",
          "name": "tokenId",
          "type": "uint256"
        }
      ],
      "name": "tokenURI",
      "outputs": [
        {
          "internalType": "string",
          "name": "",
          "type": "string"
        }
      ],
      "stateMutability": "view",
      "type": "function"
    },
    {
      "inputs": [],
      "name": "totalSupply",
      "outputs": [
        {
          "internalType": "uint256",
          "name": "",
          "type": "uint256"
        }
      ],
      "stateMutability": "view",
      "type": "function"
    },
    {
      "inputs": [
        {
          "internalType": "address",
          "name": "from",
          "type": "address"
        },
        {
          "internalType": "address",
          "name": "to",
          "type": "address"
        },
        {
          "internalType": "uint256",
          "name": "tokenId",
          "type": "uint256"
        }
      ],
      "name": "transferFrom",
      "outputs": [],
      "stateMutability": "nonpayable",
      "type": "function"
    },
    {
      "inputs": [
        {
          "internalType": "address",
          "name": "newOwner",
          "type": "address"
        }
      ],
      "name": "transferOwnership",
      "outputs": [],
      "stateMutability": "nonpayable",
      "type": "function"
    },
    {
      "inputs": [
        {
          "internalType": "uint256",
          "name": "_tokenId",
          "type": "uint256"
        }
      ],
      "name": "withdrawFirstNFT",
      "outputs": [],
      "stateMutability": "nonpayable",
      "type": "function"
    }
  ],
  "bytecode": "0x60806040523480156200001157600080fd5b5060405162001ca338038062001ca38339810160408190526200003491620001f6565b604080518082018252600a81526914d958dbdb990813919560b21b6020808301918252835180850190945260068452650c9b9913919560d21b908401528151919291620000849160009162000150565b5080516200009a90600190602084019062000150565b505050620000b7620000b1620000f160201b60201c565b620000f5565b600880546001600160a01b0319166001600160a01b038316179055620000ea600762000147602090811b62000cea17901c565b5062000265565b3390565b600680546001600160a01b038381166001600160a01b0319831681179093556040519116919082907f8be0079c531659141344cd1fd0a4f28419497f9722a3daafe3b4186f6b6457e090600090a35050565b80546001019055565b8280546200015e9062000228565b90600052602060002090601f016020900481019282620001825760008555620001cd565b82601f106200019d57805160ff1916838001178555620001cd565b82800160010185558215620001cd579182015b82811115620001cd578251825591602001919060010190620001b0565b50620001db929150620001df565b5090565b5b80821115620001db5760008155600101620001e0565b6000602082840312156200020957600080fd5b81516001600160a01b03811681146200022157600080fd5b9392505050565b600181811c908216806200023d57607f821691505b602082108114156200025f57634e487b7160e01b600052602260045260246000fd5b50919050565b611a2e80620002756000396000f3fe608060405234801561001057600080fd5b506004361061014d5760003560e01c8063715018a6116100c3578063a22cb4651161007c578063a22cb465146102b3578063a3afce07146102c6578063b88d4fde146102d9578063c87b56dd146102ec578063e985e9c5146102ff578063f2fde38b1461033b57600080fd5b8063715018a61461026457806378afda071461026c5780638da5cb5b1461027f578063921234701461029057806395d89b411461029857806397f47150146102a057600080fd5b806323b872dd1161011557806323b872dd146101e55780633fb76833146101f857806342842e0e146102215780634a60f620146102345780636352211e1461023e57806370a082311461025157600080fd5b806301ffc9a71461015257806306fdde031461017a578063081812fc1461018f578063095ea7b3146101ba57806318160ddd146101cf575b600080fd5b6101656101603660046116ed565b61034e565b60405190151581526020015b60405180910390f35b6101826103a0565b60405161017191906117d8565b6101a261019d366004611727565b610432565b6040516001600160a01b039091168152602001610171565b6101cd6101c83660046116a4565b6104cc565b005b6101d76105e2565b604051908152602001610171565b6101cd6101f3366004611555565b6105fe565b6101a2610206366004611727565b6009602052600090815260409020546001600160a01b031681565b6101cd61022f366004611555565b61062f565b6007546101d79081565b6101a261024c366004611727565b61064a565b6101d761025f3660046114e2565b6106c1565b6101cd610748565b6008546101a2906001600160a01b031681565b6006546001600160a01b03166101a2565b6101cd6107ae565b6101826107d6565b6101cd6102ae366004611727565b6107e5565b6101cd6102c1366004611676565b6109fd565b6101cd6102d4366004611727565b610a0c565b6101cd6102e7366004611596565b610b02565b6101826102fa366004611727565b610b3a565b61016561030d36600461151c565b6001600160a01b03918216600090815260056020908152604080832093909416825291909152205460ff1690565b6101cd6103493660046114e2565b610c22565b60006001600160e01b031982166380ac58cd60e01b148061037f57506001600160e01b03198216635b5e139f60e01b145b8061039a57506301ffc9a760e01b6001600160e01b03198316145b92915050565b6060600080546103af906118fd565b80601f01602080910402602001604051908101604052809291908181526020018280546103db906118fd565b80156104285780601f106103fd57610100808354040283529160200191610428565b820191906000526020600020905b81548152906001019060200180831161040b57829003601f168201915b5050505050905090565b6000818152600260205260408120546001600160a01b03166104b05760405162461bcd60e51b815260206004820152602c60248201527f4552433732313a20617070726f76656420717565727920666f72206e6f6e657860448201526b34b9ba32b73a103a37b5b2b760a11b60648201526084015b60405180910390fd5b506000908152600460205260409020546001600160a01b031690565b60006104d78261064a565b9050806001600160a01b0316836001600160a01b031614156105455760405162461bcd60e51b815260206004820152602160248201527f4552433732313a20617070726f76616c20746f2063757272656e74206f776e656044820152603960f91b60648201526084016104a7565b336001600160a01b03821614806105615750610561813361030d565b6105d35760405162461bcd60e51b815260206004820152603860248201527f4552433732313a20617070726f76652063616c6c6572206973206e6f74206f7760448201527f6e6572206e6f7220617070726f76656420666f7220616c6c000000000000000060648201526084016104a7565b6105dd8383610cf3565b505050565b600060016105ef60075490565b6105f991906118ba565b905090565b6106083382610d61565b6106245760405162461bcd60e51b81526004016104a79061183d565b6105dd838383610e58565b6105dd83838360405180602001604052806000815250610b02565b6000818152600260205260408120546001600160a01b03168061039a5760405162461bcd60e51b815260206004820152602960248201527f4552433732313a206f776e657220717565727920666f72206e6f6e657869737460448201526832b73a103a37b5b2b760b91b60648201526084016104a7565b60006001600160a01b03821661072c5760405162461bcd60e51b815260206004820152602a60248201527f4552433732313a2062616c616e636520717565727920666f7220746865207a65604482015269726f206164647265737360b01b60648201526084016104a7565b506001600160a01b031660009081526003602052604090205490565b6006546001600160a01b031633146107a25760405162461bcd60e51b815260206004820181905260248201527f4f776e61626c653a2063616c6c6572206973206e6f7420746865206f776e657260448201526064016104a7565b6107ac6000610ff4565b565b60006107b960075490565b90506107c53382611046565b6107d3600780546001019055565b50565b6060600180546103af906118fd565b6008546040516331a9108f60e11b81526004810183905233916001600160a01b031690636352211e9060240160206040518083038186803b15801561082957600080fd5b505afa15801561083d573d6000803e3d6000fd5b505050506040513d601f19601f8201168201806040525081019061086191906114ff565b6001600160a01b0316146108b75760405162461bcd60e51b815260206004820152601e60248201527f596f7520686176656e27742074686973206669727374204e465420796574000060448201526064016104a7565b60085460405163e985e9c560e01b81523360048201523060248201526001600160a01b039091169063e985e9c59060440160206040518083038186803b15801561090057600080fd5b505afa158015610914573d6000803e3d6000fd5b505050506040513d601f19601f8201168201806040525081019061093891906116d0565b6109735760405162461bcd60e51b815260206004820152600c60248201526b139bdd08185c1c1c9bdd995960a21b60448201526064016104a7565b6008546040516323b872dd60e01b8152336004820152306024820152604481018390526001600160a01b03909116906323b872dd90606401600060405180830381600087803b1580156109c557600080fd5b505af11580156109d9573d6000803e3d6000fd5b50505060009182525060096020526040902080546001600160a01b03191633179055565b610a08338383611060565b5050565b6000818152600960205260409020546001600160a01b03163314610a725760405162461bcd60e51b815260206004820152601860248201527f4e6f7420657363726f77206669727374204e465420796574000000000000000060448201526064016104a7565b6008546040516323b872dd60e01b8152306004820152336024820152604481018390526001600160a01b03909116906323b872dd90606401600060405180830381600087803b158015610ac457600080fd5b505af1158015610ad8573d6000803e3d6000fd5b50505050610ae46107ae565b600090815260096020526040902080546001600160a01b0319169055565b610b0c3383610d61565b610b285760405162461bcd60e51b81526004016104a79061183d565b610b348484848461112f565b50505050565b6000818152600260205260409020546060906001600160a01b0316610bb95760405162461bcd60e51b815260206004820152602f60248201527f4552433732314d657461646174613a2055524920717565727920666f72206e6f60448201526e3732bc34b9ba32b73a103a37b5b2b760891b60648201526084016104a7565b6000610bd060408051602081019091526000815290565b90506000815111610bf05760405180602001604052806000815250610c1b565b80610bfa84611162565b604051602001610c0b92919061176c565b6040516020818303038152906040525b9392505050565b6006546001600160a01b03163314610c7c5760405162461bcd60e51b815260206004820181905260248201527f4f776e61626c653a2063616c6c6572206973206e6f7420746865206f776e657260448201526064016104a7565b6001600160a01b038116610ce15760405162461bcd60e51b815260206004820152602660248201527f4f776e61626c653a206e6577206f776e657220697320746865207a65726f206160448201526564647265737360d01b60648201526084016104a7565b6107d381610ff4565b80546001019055565b600081815260046020526040902080546001600160a01b0319166001600160a01b0384169081179091558190610d288261064a565b6001600160a01b03167f8c5be1e5ebec7d5bd14f71427d1e84f3dd0314c0f7b2291e5b200ac8c7c3b92560405160405180910390a45050565b6000818152600260205260408120546001600160a01b0316610dda5760405162461bcd60e51b815260206004820152602c60248201527f4552433732313a206f70657261746f7220717565727920666f72206e6f6e657860448201526b34b9ba32b73a103a37b5b2b760a11b60648201526084016104a7565b6000610de58361064a565b9050806001600160a01b0316846001600160a01b03161480610e205750836001600160a01b0316610e1584610432565b6001600160a01b0316145b80610e5057506001600160a01b0380821660009081526005602090815260408083209388168352929052205460ff165b949350505050565b826001600160a01b0316610e6b8261064a565b6001600160a01b031614610ecf5760405162461bcd60e51b815260206004820152602560248201527f4552433732313a207472616e736665722066726f6d20696e636f72726563742060448201526437bbb732b960d91b60648201526084016104a7565b6001600160a01b038216610f315760405162461bcd60e51b8152602060048201526024808201527f4552433732313a207472616e7366657220746f20746865207a65726f206164646044820152637265737360e01b60648201526084016104a7565b610f3c600082610cf3565b6001600160a01b0383166000908152600360205260408120805460019290610f659084906118ba565b90915550506001600160a01b0382166000908152600360205260408120805460019290610f9390849061188e565b909155505060008181526002602052604080822080546001600160a01b0319166001600160a01b0386811691821790925591518493918716917fddf252ad1be2c89b69c2b068fc378daa952ba7f163c4a11628f55a4df523b3ef91a4505050565b600680546001600160a01b038381166001600160a01b0319831681179093556040519116919082907f8be0079c531659141344cd1fd0a4f28419497f9722a3daafe3b4186f6b6457e090600090a35050565b610a08828260405180602001604052806000815250611260565b816001600160a01b0316836001600160a01b031614156110c25760405162461bcd60e51b815260206004820152601960248201527f4552433732313a20617070726f766520746f2063616c6c65720000000000000060448201526064016104a7565b6001600160a01b03838116600081815260056020908152604080832094871680845294825291829020805460ff191686151590811790915591519182527f17307eab39ab6107e8899845ad3d59bd9653f200f220920489ca2b5937696c31910160405180910390a3505050565b61113a848484610e58565b61114684848484611293565b610b345760405162461bcd60e51b81526004016104a7906117eb565b6060816111865750506040805180820190915260018152600360fc1b602082015290565b8160005b81156111b0578061119a81611938565b91506111a99050600a836118a6565b915061118a565b60008167ffffffffffffffff8111156111cb576111cb6119a9565b6040519080825280601f01601f1916602001820160405280156111f5576020820181803683370190505b5090505b8415610e505761120a6001836118ba565b9150611217600a86611953565b61122290603061188e565b60f81b81838151811061123757611237611993565b60200101906001600160f81b031916908160001a905350611259600a866118a6565b94506111f9565b61126a83836113a0565b6112776000848484611293565b6105dd5760405162461bcd60e51b81526004016104a7906117eb565b60006001600160a01b0384163b1561139557604051630a85bd0160e11b81526001600160a01b0385169063150b7a02906112d790339089908890889060040161179b565b602060405180830381600087803b1580156112f157600080fd5b505af1925050508015611321575060408051601f3d908101601f1916820190925261131e9181019061170a565b60015b61137b573d80801561134f576040519150601f19603f3d011682016040523d82523d6000602084013e611354565b606091505b5080516113735760405162461bcd60e51b81526004016104a7906117eb565b805181602001fd5b6001600160e01b031916630a85bd0160e11b149050610e50565b506001949350505050565b6001600160a01b0382166113f65760405162461bcd60e51b815260206004820181905260248201527f4552433732313a206d696e7420746f20746865207a65726f206164647265737360448201526064016104a7565b6000818152600260205260409020546001600160a01b03161561145b5760405162461bcd60e51b815260206004820152601c60248201527f4552433732313a20746f6b656e20616c7265616479206d696e7465640000000060448201526064016104a7565b6001600160a01b038216600090815260036020526040812080546001929061148490849061188e565b909155505060008181526002602052604080822080546001600160a01b0319166001600160a01b03861690811790915590518392907fddf252ad1be2c89b69c2b068fc378daa952ba7f163c4a11628f55a4df523b3ef908290a45050565b6000602082840312156114f457600080fd5b8135610c1b816119bf565b60006020828403121561151157600080fd5b8151610c1b816119bf565b6000806040838503121561152f57600080fd5b823561153a816119bf565b9150602083013561154a816119bf565b809150509250929050565b60008060006060848603121561156a57600080fd5b8335611575816119bf565b92506020840135611585816119bf565b929592945050506040919091013590565b600080600080608085870312156115ac57600080fd5b84356115b7816119bf565b935060208501356115c7816119bf565b925060408501359150606085013567ffffffffffffffff808211156115eb57600080fd5b818701915087601f8301126115ff57600080fd5b813581811115611611576116116119a9565b604051601f8201601f19908116603f01168101908382118183101715611639576116396119a9565b816040528281528a602084870101111561165257600080fd5b82602086016020830137600060208483010152809550505050505092959194509250565b6000806040838503121561168957600080fd5b8235611694816119bf565b9150602083013561154a816119d4565b600080604083850312156116b757600080fd5b82356116c2816119bf565b946020939093013593505050565b6000602082840312156116e257600080fd5b8151610c1b816119d4565b6000602082840312156116ff57600080fd5b8135610c1b816119e2565b60006020828403121561171c57600080fd5b8151610c1b816119e2565b60006020828403121561173957600080fd5b5035919050565b600081518084526117588160208601602086016118d1565b601f01601f19169290920160200192915050565b6000835161177e8184602088016118d1565b8351908301906117928183602088016118d1565b01949350505050565b6001600160a01b03858116825284166020820152604081018390526080606082018190526000906117ce90830184611740565b9695505050505050565b602081526000610c1b6020830184611740565b60208082526032908201527f4552433732313a207472616e7366657220746f206e6f6e20455243373231526560408201527131b2b4bb32b91034b6b83632b6b2b73a32b960711b606082015260800190565b60208082526031908201527f4552433732313a207472616e736665722063616c6c6572206973206e6f74206f6040820152701ddb995c881b9bdc88185c1c1c9bdd9959607a1b606082015260800190565b600082198211156118a1576118a1611967565b500190565b6000826118b5576118b561197d565b500490565b6000828210156118cc576118cc611967565b500390565b60005b838110156118ec5781810151838201526020016118d4565b83811115610b345750506000910152565b600181811c9082168061191157607f821691505b6020821081141561193257634e487b7160e01b600052602260045260246000fd5b50919050565b600060001982141561194c5761194c611967565b5060010190565b6000826119625761196261197d565b500690565b634e487b7160e01b600052601160045260246000fd5b634e487b7160e01b600052601260045260246000fd5b634e487b7160e01b600052603260045260246000fd5b634e487b7160e01b600052604160045260246000fd5b6001600160a01b03811681146107d357600080fd5b80151581146107d357600080fd5b6001600160e01b0319811681146107d357600080fdfea26469706673582212206e07d60502b09b6d4afbe4886ddb9549ba4dbd24db9b3e2d6874906ae282aa2f64736f6c63430008070033",
  "linkReferences": {},
  "deployedLinkReferences": {}
}